:0300000002285F74
:0100030032CA
:01000B0032C2
:0100130032BA
:03001B000205A536
:0400230002100A328B
:03002B000205C10A
:10002E00C00078B10000D8FCD00022C000C0017919
:10003E002D78A6D8FED9FADAF6D001D00022D293C6
:10004E0012002EC29322A2E792B5A2E692B4A2E5C6
:10005E0092B3A2E492B212004C12002EA2E392B519
:10006E00A2E292B4A2E192B3A2E092B212004C22AA
:10007E00D291020054C291020054C293C2927433C0
:10008E0012008374331200837432120083742812A8
:10009E000083740C1200837401120083C0027A0272
:1000AE00120039D00222E493600612007EA380F67D
:1000BE002244404480020083C0E0E8C4540F443020
:1000CE0012007EE8540F443012007ED0E022C0E0D1
:0E00DE00E8C4540F4430E8540F4430D0E02200
:1000EC0022780122C0E07407141200C1D0E0C08352
:1000FC00C082C0E0900ECD1200B4D0E0D082D0838C
:10010C00C0E07409141200C1D0E0C083C082C0E00A
:0D011C00900ECD1200B4D0E0D082D083222E
:10012900C0E0C0D0C000C001C002E4F54FF550F5F1
:1001390051F552F5537A20E54AA2E779047847E662
:1001490033F608D9FA7905784FE636D4F608D9F99D
:10015900DAE5D002D001D000D0D0D0E022C0E0C092
:10016900D0C000C001C002E4F54FF550F551F55279
:10017900F5537A20E54AA2E779047847E633F60889
:10018900D9FA7905784FC0D0E6243320E70224D084
:1001990020E30224FDD0D033F608D9EADAD6D0021A
:1001A900D001D000D0D0D0E022C0E0C0D0C000C083
:1001B90001C0027A207905C37853E613C0D030E72D
:1001C9000224D030E30224FDF618D0D0D9EC79040A
:1001D900784AE613F618D9FADADBD002D001D00052
:1001E900D0D0D0E022C0E0C0D0E547254BF547E5A7
:1001F90048354CF548E549354DF549E54A354EF55B
:100209004AD0D0D0E022C0E0C0D0C3E547954BF535
:1002190047E548954CF548E549954DF549E54A9531
:100229004EF54AD0D0D0E022C0E0C0D0C3E5479512
:100239004BE548954CE549954DE54A954E9200D0D8
:10024900D0D0E022C0E0C0D0C3E54B9547E54C953E
:1002590048E54D9549E54E954A9200D0D0D0E02227
:10026900C0E0C0D0C200C3E54B95477014E54C957A
:1002790048700EE54D95497008E54E954A7002D2D1
:1002890000D0D0D0E02212026920000302024D22E0
:1002990012026920000302023122C0E0C0F0C0D07E
:1002A900C000C001C002C003E547854BF0A4F8A90E
:1002B900F0E548854BF0A429F9E435F0FAE54785DE
:1002C9004CF0A429F9E5F03AFAE433FBE549854B0A
:1002D900F0A42AFAE5F03BFBE548854CF0A42AFA9C
:1002E900E5F03BFBE547854DF0A42AFAE5F03BFB39
:1002F900E54A854BF0A42BFBE549854CF0A42BFB83
:10030900E548854DF0A42BFBE547854EF0A42BFB72
:100319008B4A8A4989488847D003D002D001D00046
:10032900D0D0D0F0D0E022C0E0C0D0C000C001C021
:1003390002C003C0047C20E4F8F9FAFBC3E54733A3
:10034900F547E54833F548E54933F549E54A33F5D5
:100359004AE833F8E933F9EA33FAEB33FBC3E895B2
:100369004BE9954CEA954DEB954E4013E8954BF8C2
:10037900E9954CF9EA954DFAEB954EFB434701DCBB
:10038900BBD004D003D002D001D000D0D0D0E0221D
:1003990079DE78A6D8FED9FA438780759852759B7D
:1003A90000759AF4759B1ED2ACD2BC22B2B630E568
:1003B9001630E1047530012230E204753002223032
:1003C900E3047530032222A2E7920DA2E6920EA25F
:1003D900E4920FA2E39210A2E29211A2E19212A278
:1003E900E0921322E56414F5752402F574940B75F3
:1003F9007A14754BB4754C00754D00754E00120298
:1004090031300005940C757A1EF57B22754B6475A5
:100419004C00754D00754E001202A3754E00754DC6
:100429000085614C85604B12020F754B12754C07A4
:10043900754D00754E001202A3754BEF754CCD75C5
:100449004D00754E0012020F754B40754C42754DAB
:100459000F754E0012033085477622E4F54AF549B7
:10046900F548F54EF54DF54C2230142EC214120400
:1004790064856447754B32754C00754D00754E00A7
:1004890012023120000E1203ED120415D215C21604
:10049900C2178006C215C216C21720150B201623D3
:1004A9002017307577008056E41204648562478509
:1004B9007B4B1202313000057577648041C215D239
:1004C90016C217D57A0280057577008031C215C228
:1004D90016D21785767712046485624785744B12A4
:1004E900028F20001385754B120231200002800E05
:1004F900E5772407F5778006E5779407F57785771B
:100509007822E578B40006F578D281800514F5786B
:10051900C28122E54AC0E0E549C0E0E548C0E0E51E
:1005290047C0E0E54EC0E0E54DC0E0E54CC0E0E580
:100539004BC0E0E553C0E0E552C0E0E551C0E0E55D
:1005490050C0E0E54FC0E0A200C0D022D0D0920058
:10055900D0E0F54FD0E0F550D0E0F551D0E0F552BC
:10056900D0E0F553D0E0F54BD0E0F54CD0E0F54DB7
:10057900D0E0F54ED0E0F547D0E0F548D0E0F549B8
:10058900D0E0F54A22E589540F4410F589758DEAC2
:10059900758BE875F5EA75F3E8D2AB22B2B7327517
:1005A900C80075CD5375CC3475CB5375CA34E4F591
:1005B90058F559D2ADD2CA22C2CFD2B6C0E0C0D006
:1005C900E54AC0E0E549C0E0E548C0E0E547C0E0EC
:1005D900E54EC0E0E54DC0E0E54CC0E0E54BC0E0CC
:1005E900E553C0E0E552C0E0E551C0E0E550C0E0A8
:1005F900E54FC0E0A200C0D00558E5587002055982
:10060900E558B4F44FE559B4014AD201E4F558F577
:1006190059E545B4000E75560075570075540075B7
:1006290055008030E5542401D4F554B40007E5554C
:100639002401D4F555E5562401D4F556B40007E54F
:10064900572401D4F557E5460546B40507B208D243
:1006590009754600120BBD803DD0D09200D0E0F55F
:100669004FD0E0F550D0E0F551D0E0F552D0E0F5AB
:1006790053D0E0F54BD0E0F54CD0E0F54DD0E0F5A6
:100689004ED0E0F547D0E0F548D0E0F549D0E0F5A7
:100699004AD0D0D0E032D5790675790512050B809C
:1006A9003DD0D09200D0E0F54FD0E0F550D0E0F544
:1006B90051D0E0F552D0E0F553D0E0F54BD0E0F55C
:1006C9004CD0E0F54DD0E0F54ED0E0F547D0E0F55F
:1006D90048D0E0F549D0E0F54AD0D0D0E032C2A008
:1006E9007B011210AD7B801210ADEC5403F5737BC6
:1006F900551210AD8C72D2A0754A007549008573E8
:1007090048857247754B9F754C09754D00754E00AC
:100719001202A3754B64754C00754D00754E00129D
:100729000330754B00754C00754D00754E00740013
:10073900B4000512020F80031201EE754E00754DCB
:100749000085614C85604B1201EE854866854765D9
:10075900C2A07B011210AD7B901210ADEC5403F5D1
:10076900737B551210AD8C72D2A0754A0075490081
:10077900857348857247754B9A754C09754D007597
:100789004E001202A3754B64754C00754D00754EF1
:1007990000120330754B1E754C00754D00754E00E7
:1007A9007401B4000512020F80031201EE754E00A8
:1007B900754D0085614C85604B1201EE85486A854F
:1007C9004769C2A07B011210AD7BA01210ADEC5499
:1007D90003F5737B551210AD8C72D2A0754A007562
:1007E9004900857348857247754B8D754C09754D60
:1007F90000754E001202A3754B64754C00754D00CF
:10080900754E00120330754B2C754C01754D0075F2
:100819004E007401B4000512020F80031201EE7537
:100829004E00754D0085614C85604B1201EE85487F
:100839006E85476D120464856848856747754B6303
:10084900754C00754D00754E001202A385664C85E6
:10085900654B1201EE754B64754C00754D00754E74
:1008690000120330854868854767120464856C481F
:10087900856B47754B63754C00754D00754E0012BD
:1008890002A3856A4C85694B1201EE754B64754C60
:1008990000754D00754E0012033085486C85476B15
:1008A900120464857048856F47754B63754C0075F4
:1008B9004D00754E001202A3856E4C856D4B1201D9
:1008C900EE754B64754C00754D00754E0012033082
:1008D90085487085476FD571487571FA85705B8554
:1008E9006F5A856C5D856B5C85685F85675E1209EB
:1008F90067120B5DB218301828120472E545B4006E
:10090900028017B40502801230870F200B03D57CB3
:1009190010437F08D20BD2028007757C0AC20BC232
:1009290002D0D09200D0E0F54FD0E0F550D0E0F5FC
:1009390051D0E0F552D0E0F553D0E0F54BD0E0F5D9
:100949004CD0E0F54DD0E0F54ED0E0F547D0E0F5DC
:1009590048D0E0F549D0E0F54AD0D0D0E032C00324
:10096900C004120464855B48855A47754B64754C0D
:1009790000754D00754E00120330AB47855D488503
:100989005C47754B64754C00754D00754E0012033C
:1009990030AC471204648B478C4B12020F754B0520
:1009A900120299300005D20A0209CC1204648C475C
:1009B9008B4B12020F754B05120299300005D20AB2
:1009C9000209CCD004D003300A2CC20A120464856F
:1009D9005B48855A47855D4C855C4B1201EE754B2A
:1009E90002754C00754D00754E0012033085487E26
:1009F90085477D020B3B437F20C003C0041204647A
:100A0900855B48855A47754B64754C00754D007573
:100A19004E00120330AB47855F48855E47754B64CE
:100A2900754C00754D00754E00120330AC47120429
:100A3900648B478C4B12020F754B051202993000DB
:100A490005D20A020A671204648C478B4B12020F03
:100A5900754B05120299300005D20A020A67D004C3
:100A6900D003300A2CC20A120464855B48855A47B0
:100A7900855F4C855E4B1201EE754B02754C007516
:100A89004D00754E0012033085487E85477D020B67
:100A99003BC003C004120464855D48855C47754BFF
:100AA90064754C00754D00754E00120330AB4785D7
:100AB9005F48855E47754B64754C00754D00754EF2
:100AC90000120330AC471204648B478C4B12020F9F
:100AD900754B03120299300005D20A020AFF12046B
:100AE900648C478B4B12020F754B0312029930002D
:100AF90005D20A020AFFD004D003300A2CC20A1216
:100B09000464855D48855C47855F4C855E4B1201B1
:100B1900EE754B02754C00754D00754E0012033091
:100B290085487E85477D020B3B855B7E855A7D43E3
:100B39007F10754A00754900857E48857D47754B4C
:100B490064754C00754D00754E001203308548637D
:100B590085476222300CFDC20C857E99300CFDC29E
:100B69000C857D99E4F553F552F551855550855419
:100B79004F1201B2300CFDC20C854899300CFDC2F0
:100B89000C854799E4F553F552F55185575085562B
:100B99004F1201B2300CFDC20C854799E545427FE1
:100BA900300CFDC20C857F99757F00300CFDC20C9D
:040BB90075990A22FE
:100BBD00D2D3301D0508E8700109301E050AEA7010
:100BCD00010B301F050CEC70010DE8B4960DE9B466
:100BDD000009B28ED2B7C21DE4F8F9EAB4EE0DEBFE
:100BED00B40209B28ED2B7C21EE4FAFBECB46406AD
:100BFD00EDB40002B28EECB4C806EDB40002B28EB4
:100C0D00ECB42C06EDB40102B28EECB49006EDB44A
:100C1D000102B28EECB4F406EDB40102B28EECB466
:100C2D005806EDB40202B28EECB4BC06EDB402026D
:100C3D00B28EECB42006EDB40302B28EECB4840691
:100C4D00EDB40302B28EECB4E806EDB40302B28E3D
:100C5D00ECB44C0DEDB40409B28ED2B7C21FE4FC56
:100C6D00FDC2D322D2D3E4F8F9D21DB28EC2D32263
:100C7D00D2D3E4FAFBD21EB28EC2D322D2D3E4FC7D
:100C8D00FDD21FB28EC2D322D2D3E4F8F9FAFBFC07
:100C9D00FDC21DC21EC21FC28EC2D322C0E074018E
:100CAD00141200C1D0E0C083C082C0E0900D1A12B2
:100CBD0000B4D0E0D082D083C0E07401141200BF24
:100CCD00D0E0C083C082C0E0900D1A1200B4D0E015
:100CDD00D082D083C0E07401141200C1D0E0C08373
:100CED00C082C0E0900D1A1200B4D0E0D082D08343
:100CFD00C0E07401141200BFD0E0C083C082C0E018
:0D0D0D00900D1A1200B4D0E0D082D08322E5
:100D1A0020202020202020202020202020202020C9
:100D2A000053746172743C202053657474696E6751
:100D3A007300537461727420203E53657474696E33
:100D4A006773005374617274202020536574746948
:100D5A006E677300507265736574203C2020507270
:100D6A006F626573005072657365742020203E506F
:100D7A00726F62657300507265736574202020205B
:100D8A0050726F626573004261636B3C20202020C1
:100D9A0050726573657431004261636B20202020B4
:100DAA003E50726573657431004261636B20202086
:100DBA0020205072657365743100507265736574D2
:100DCA00323C2050726573657433005072657365E6
:100DDA007432203E507265736574330050726573C5
:100DEA0065743220205072657365743300536176DE
:100DFA00653C2020202020204F74686572005361D2
:100E0A0076652020202020203E4F746865720053AA
:100E1A00617665202020202020204F7468657200AA
:100E2A00536F616B2D543C205265666C6F772D545D
:100E3A0000536F616B2D54203E5265666C6F772D9F
:100E4A005400536F616B2D5420205265666C6F7786
:100E5A002D540053656C6563742050726573657414
:100E6A000043686F6F736520707265736574202321
:100E7A0000746F207361766520746F3A005365744D
:100E8A0074696E6773205361766564005361766591
:100E9A002053657474696E67733F0054656D7020E2
:100EAA002020204475726174696F6E0054656D70FC
:100EBA00202020204475726174696F6E003C003EE8
:100ECA000020002020202020202020004F007878B9
:100EDA0078787878787800636363636300727272F3
:100EEA007200747474740052616D70546F536F6140
:100EFA006B00536F616B0052616D70546F50656186
:100F0A006B005265666C6F7700436F6F6C696E6732
:100F1A00002D2D2D2D2D0055736572206578636582
:100F2A007074696F6E0041626F7274696E67004512
:100F3A0052524F5200434F4F4C0068656174005043
:100F4A00726F6265312020202050726F6265330013
:100F5A0050726F62653220202020526573756C745E
:100F6A000012058E1205A8120399D2AF75300175C9
:100F7A00310075320075337375343C7535787536C2
:100F8A0096753796753896753900753A4B753B2DB7
:100F9A00753C4B753D00753ED9753FD97540D9757D
:100FAA004100754200754300754400C20275030092
:100FBA00750400750500750600754500C209C2086A
:100FCA0075540075550075560075570075E600751D
:100FDA00E700756200757D00757E007561097560B0
:100FEA0092756400D214C20DC20EC20FD2B7C21DCE
:100FFA00C21EC21FD2D3E4F8F9FAFBFCFDC2D32207
:10100A00309905C299D20C32C298C0E0C0D0E59995
:10101A00200F081203B5D0D0D0E032C20F3010072B
:10102A00F5327533008020301107F53175320080B2
:10103A0016301207F53D753E00800C301307F5395E
:10104A00753A00800280CFC0E0E530B40117C0E0F5
:10105A00E531F533E539F53AE532F536E53DF53E64
:10106A00D0E00210A3B40217C0E0E531F534E53947
:10107A00F53BE532F537E53DF53FD0E00210A3B484
:10108A000317C0E0E531F535E539F53CE532F538C9
:10109A00E53DF540D0E00210A3D0E0021020D2A234
:1010AA00C2A322C0E07C007D08EB33FB92A1D2A34D
:1010BA00A2A2EC33FCC2A3DDF0D0E022300CFDC2C8
:1010CA000CF59922E49360061210C6A380F622EA70
:1010DA00B400057900021124EAB40111E9B4FF054C
:1010EA007901021124B402327900021124EAB4020D
:1010FA0011E9B4FF057902021124B4031D79000233
:10110A001124EAB40311E9B4FF057903021124B4E6
:10111A000408790002112402112422C0E0E530B447
:10112A000115C0E07407141200BFD0E0C0E07431AA
:10113A0012007ED0E08030B40215C0E074071412A9
:10114A0000BFD0E0C0E0743212007ED0E08018B454
:10115A000315C0E07407141200BFD0E0C0E0743376
:10116A0012007ED0E08000300D0512329DC20DD0F3
:10117A00E022120464855A47855B48754B88754C92
:10118A0013754D00754E0012024D300003437F80E7
:10119A00855C47855D4812024D300003437F808598
:1011AA005E47855F4812024D300003437F8022C0AC
:1011BA0000C001C002C003C004C005C006C007C009
:1011CA00E0780079007A0074007401B401010A74AD
:1011DA0001B401010A7401B401010AE9B40079C039
:1011EA00E07401141200C1D0E0C083C082C0E09054
:1011FA000D1A1200B4D0E0D082D083C0E07401147A
:10120A001200C1D0E0C083C082C0E0900D911200EC
:10121A00B4D0E0D082D083EA5402B40238C0E07479
:10122A0001141200BFD0E0C083C082C0E0900D1A42
:10123A001200B4D0E0D082D083C0E074011412004E
:10124A00BFD0E0C083C082C0E0900DE61200B4D0E7
:10125A00E0D082D0830213D9E9B40179C0E07401E5
:10126A00141200C1D0E0C083C082C0E0900D1A12EF
:10127A0000B4D0E0D082D083C0E07401141200C15F
:10128A00D0E0C083C082C0E0900DA21200B4D0E0CA
:10129A00D082D083EA5402B40238C0E07401141236
:1012AA0000BFD0E0C083C082C0E0900D1A1200B423
:1012BA00D0E0D082D083C0E07401141200BFD0E025
:1012CA00C083C082C0E0900DE61200B4D0E0D082A4
:1012DA00D0830213D9E9B40279C0E0740114120070
:1012EA00C1D0E0C083C082C0E0900D1A1200B4D011
:1012FA00E0D082D083C0E07401141200C1D0E0C0F3
:10130A0083C082C0E0900DB31200B4D0E0D082D086
:10131A0083EA5402B40238C0E07401141200BFD048
:10132A00E0C083C082C0E0900D1A1200B4D0E0D0B1
:10133A0082D083C0E07401141200BFD0E0C083C021
:10134A0082C0E0900DC41200B4D0E0D082D08302F3
:10135A0013D9E9B40379C0E07401141200C1D0E0D2
:10136A00C083C082C0E0900D1A1200B4D0E0D082CF
:10137A00D083C0E07401141200C1D0E0C083C082DF
:10138A00C0E0900DB31200B4D0E0D082D083EA540A
:10139A0002B40238C0E07401141200BFD0E0C08366
:1013AA00C082C0E0900D1A1200B4D0E0D082D0837F
:1013BA00C0E07401141200BFD0E0C083C082C0E054
:1013CA00900DD51200B4D0E0D082D0830213D92078
:1013DA00A614C0027A0A120039D00220A60830A642
:1013EA00FD30A5FD80030215EB091210D9E9B400FE
:1013FA0079C0E07401141200C1D0E0C083C082C079
:10140A00E0900D1A1200B4D0E0D082D083C0E0740C
:10141A0001141200C1D0E0C083C082C0E0900D91D7
:10142A001200B4D0E0D082D083EA5402B40238C0A9
:10143A00E07401141200BFD0E0C083C082C0E09003
:10144A000D1A1200B4D0E0D082D083C0E074011427
:10145A001200BFD0E0C083C082C0E0900DE6120047
:10146A00B4D0E0D082D0830215EBE9B40179C0E0B0
:10147A007401141200C1D0E0C083C082C0E0900D94
:10148A001A1200B4D0E0D082D083C0E074011412E2
:10149A0000C1D0E0C083C082C0E0900DA21200B4A7
:1014AA00D0E0D082D083EA5402B40238C0E074019A
:1014BA00141200BFD0E0C083C082C0E0900D1A129F
:1014CA0000B4D0E0D082D083C0E07401141200BF0F
:1014DA00D0E0C083C082C0E0900DE61200B4D0E034
:1014EA00D082D0830215EBE9B40279C0E07401140A
:1014FA001200C1D0E0C083C082C0E0900D1A120071
:10150A00B4D0E0D082D083C0E07401141200C1D0FC
:10151A00E0C083C082C0E0900DB31200B4D0E0D026
:10152A0082D083EA5402B40238C0E0740114120073
:10153A00BFD0E0C083C082C0E0900D1A1200B4D0C0
:10154A00E0D082D083C0E07401141200BFD0E0C0A2
:10155A0083C082C0E0900DC41200B4D0E0D082D023
:10156A00830215EBE9B40379C0E07401141200C1D7
:10157A00D0E0C083C082C0E0900D1A1200B4D0E05F
:10158A00D082D083C0E07401141200C1D0E0C083BD
:10159A00C082C0E0900DB31200B4D0E0D082D083F4
:1015AA00EA5402B40238C0E07401141200BFD0E059
:1015BA00C083C082C0E0900D1A1200B4D0E0D0827D
:1015CA00D083C0E07401141200BFD0E0C083C0828F
:1015DA00C0E0900DD51200B4D0E0D082D0830215BD
:1015EA00EB20A514C0027A0A120039D00220A508FD
:1015FA0030A5FD30A6FD80030217FD191210D9E9A6
:10160A00B40079C0E07401141200C1D0E0C083C0F4
:10161A0082C0E0900D1A1200B4D0E0D082D083C00C
:10162A00E07401141200C1D0E0C083C082C0E0900F
:10163A000D911200B4D0E0D082D083EA5402B402F1
:10164A0038C0E07401141200BFD0E0C083C082C069
:10165A00E0900D1A1200B4D0E0D082D083C0E074BA
:10166A0001141200BFD0E0C083C082C0E0900DE632
:10167A001200B4D0E0D082D0830217FDE9B4017918
:10168A00C0E07401141200C1D0E0C083C082C0E07F
:10169A00900D1A1200B4D0E0D082D083C0E0740159
:1016AA00141200C1D0E0C083C082C0E0900DA21223
:1016BA0000B4D0E0D082D083EA5402B40238C0E049
:1016CA007401141200BFD0E0C083C082C0E0900D44
:1016DA001A1200B4D0E0D082D083C0E07401141290
:1016EA0000BFD0E0C083C082C0E0900DE61200B413
:1016FA00D0E0D082D0830217FDE9B40279C0E07449
:10170A0001141200C1D0E0C083C082C0E0900D1A5B
:10171A001200B4D0E0D082D083C0E0740114120069
:10172A00C1D0E0C083C082C0E0900DB31200B4D033
:10173A00E0D082D083EA5402B40238C0E0740114C3
:10174A001200BFD0E0C083C082C0E0900D1A120020
:10175A00B4D0E0D082D083C0E07401141200BFD0AC
:10176A00E0C083C082C0E0900DC41200B4D0E0D0C3
:10177A0082D0830217FDE9B40379C0E07401141220
:10178A0000C1D0E0C083C082C0E0900D1A1200B43C
:10179A00D0E0D082D083C0E07401141200C1D0E03E
:1017AA00C083C082C0E0900DB31200B4D0E0D082F2
:1017BA00D083EA5402B40238C0E07401141200BFA4
:1017CA00D0E0C083C082C0E0900D1A1200B4D0E00D
:1017DA00D082D083C0E07401141200BFD0E0C0836D
:1017EA00C082C0E0900DD51200B4D0E0D082D08380
:1017FA000217FDE8B401057800021A4120A711C0BA
:10180A00027A32120039D00220A70530A7FD8003E0
:10181A00021A3BE9B400061200ED021845E9B401C8
:10182A0006121A54021845E9B40206121A5A021884
:10183A0045E9B40306121A600218457900E9B400B2
:10184A0079C0E07401141200C1D0E0C083C082C024
:10185A00E0900D1A1200B4D0E0D082D083C0E074B8
:10186A0001141200C1D0E0C083C082C0E0900D9183
:10187A001200B4D0E0D082D083EA5402B40238C055
:10188A00E07401141200BFD0E0C083C082C0E090AF
:10189A000D1A1200B4D0E0D082D083C0E0740114D3
:1018AA001200BFD0E0C083C082C0E0900DE61200F3
:1018BA00B4D0E0D082D083021A3BE9B40179C0E007
:1018CA007401141200C1D0E0C083C082C0E0900D40
:1018DA001A1200B4D0E0D082D083C0E0740114128E
:1018EA0000C1D0E0C083C082C0E0900DA21200B453
:1018FA00D0E0D082D083EA5402B40238C0E0740146
:10190A00141200BFD0E0C083C082C0E0900D1A124A
:10191A0000B4D0E0D082D083C0E07401141200BFBA
:10192A00D0E0C083C082C0E0900DE61200B4D0E0DF
:10193A00D082D083021A3BE9B40279C0E074011460
:10194A001200C1D0E0C083C082C0E0900D1A12001C
:10195A00B4D0E0D082D083C0E07401141200C1D0A8
:10196A00E0C083C082C0E0900DB31200B4D0E0D0D2
:10197A0082D083EA5402B40238C0E074011412001F
:10198A00BFD0E0C083C082C0E0900D1A1200B4D06C
:10199A00E0D082D083C0E07401141200BFD0E0C04E
:1019AA0083C082C0E0900DC41200B4D0E0D082D0CF
:1019BA0083021A3BE9B40379C0E07401141200C12E
:1019CA00D0E0C083C082C0E0900D1A1200B4D0E00B
:1019DA00D082D083C0E07401141200C1D0E0C08369
:1019EA00C082C0E0900DB31200B4D0E0D082D083A0
:1019FA00EA5402B40238C0E07401141200BFD0E005
:101A0A00C083C082C0E0900D1A1200B4D0E0D08228
:101A1A00D083C0E07401141200BFD0E0C083C0823A
:101A2A00C0E0900DD51200B4D0E0D082D083021A63
:101A3A003B1200EC0213D9D0E0D007D006D005D073
:101A4A0004D003D002D001D00022753001780122DF
:101A5A00753002780122753003780122C0E0E53042
:101A6A00B40116C0E0E533F531E53AF539E536F566
:101A7A0032E53EF53DD0E08032B40216C0E0E534EE
:101A8A00F531E53BF539E537F532E53FF53DD0E08F
:101A9A008019B40316C0E0E535F531E53CF539E5C2
:101AAA0038F532E540F53DD0E08000D0E0C000C016
:101ABA0001C002C003C004C005C006C007C0E07868
:101ACA000079007A0074007401B401010A7401B447
:101ADA0001010A7401B401010AE9B40079C0E07491
:101AEA0001141200C1D0E0C083C082C0E0900D1A78
:101AFA001200B4D0E0D082D083C0E0740114120086
:101B0A00C1D0E0C083C082C0E0900DF71200B4D00B
:101B1A00E0D082D083EA5402B40238C0E0740114DF
:101B2A001200BFD0E0C083C082C0E0900D1A12003C
:101B3A00B4D0E0D082D083C0E07401141200BFD0C8
:101B4A00E0C083C082C0E0900E4C1200B4D0E0D056
:101B5A0082D083021CD7E9B40179C0E0740114125F
:101B6A0000C1D0E0C083C082C0E0900D1A1200B458
:101B7A00D0E0D082D083C0E07401141200C1D0E05A
:101B8A00C083C082C0E0900E081200B4D0E0D082B8
:101B9A00D083EA5402B40238C0E07401141200BFC0
:101BAA00D0E0C083C082C0E0900D1A1200B4D0E029
:101BBA00D082D083C0E07401141200BFD0E0C08389
:101BCA00C082C0E0900E4C1200B4D0E0D082D08324
:101BDA00021CD7E9B40279C0E07401141200C1D022
:101BEA00E0C083C082C0E0900D1A1200B4D0E0D0E9
:101BFA0082D083C0E07401141200C1D0E0C083C057
:101C0A0082C0E0900E191200B4D0E0D082D083EAEC
:101C1A005402B40238C0E07401141200BFD0E0C00C
:101C2A0083C082C0E0900D1A1200B4D0E0D082D0F6
:101C3A0083C0E07401141200BFD0E0C083C082C028
:101C4A00E0900E2A1200B4D0E0D082D083021CD7D2
:101C5A00E9B40379C0E07401141200C1D0E0C08372
:101C6A00C082C0E0900D1A1200B4D0E0D082D083B6
:101C7A00C0E07401141200C1D0E0C083C082C0E089
:101C8A00900E191200B4D0E0D082D083EA5402B484
:101C9A000238C0E07401141200BFD0E0C083C082D1
:101CAA00C0E0900D1A1200B4D0E0D082D083C0E018
:101CBA007401141200BFD0E0C083C082C0E0900E4D
:101CCA003B1200B4D0E0D082D083021CD720A614E5
:101CDA00C0027A0A120039D00220A60830A6FD30C6
:101CEA00A5FD8003021EE9091210D9E9B40079C0E2
:101CFA00E07401141200C1D0E0C083C082C0E09039
:101D0A000D1A1200B4D0E0D082D083C0E07401145E
:101D1A001200C1D0E0C083C082C0E0900DF712006B
:101D2A00B4D0E0D082D083EA5402B40238C0E0745E
:101D3A0001141200BFD0E0C083C082C0E0900D1A27
:101D4A001200B4D0E0D082D083C0E0740114120033
:101D5A00BFD0E0C083C082C0E0900E4C1200B4D065
:101D6A00E0D082D083021EE9E9B40179C0E07401AF
:101D7A00141200C1D0E0C083C082C0E0900D1A12D4
:101D8A0000B4D0E0D082D083C0E07401141200C144
:101D9A00D0E0C083C082C0E0900E081200B4D0E048
:101DAA00D082D083EA5402B40238C0E0740114121B
:101DBA0000BFD0E0C083C082C0E0900D1A1200B408
:101DCA00D0E0D082D083C0E07401141200BFD0E00A
:101DDA00C083C082C0E0900E4C1200B4D0E0D08222
:101DEA00D083021EE9E9B40279C0E074011412003A
:101DFA00C1D0E0C083C082C0E0900D1A1200B4D0F6
:101E0A00E0D082D083C0E07401141200C1D0E0C0D7
:101E1A0083C082C0E0900E191200B4D0E0D082D004
:101E2A0083EA5402B40238C0E07401141200BFD02D
:101E3A00E0C083C082C0E0900D1A1200B4D0E0D096
:101E4A0082D083C0E07401141200BFD0E0C083C006
:101E5A0082C0E0900E2A1200B4D0E0D082D0830271
:101E6A001EE9E9B40379C0E07401141200C1D0E09C
:101E7A00C083C082C0E0900D1A1200B4D0E0D082B4
:101E8A00D083C0E07401141200C1D0E0C083C082C4
:101E9A00C0E0900E191200B4D0E0D082D083EA5488
:101EAA0002B40238C0E07401141200BFD0E0C0834B
:101EBA00C082C0E0900D1A1200B4D0E0D082D08364
:101ECA00C0E07401141200BFD0E0C083C082C0E039
:101EDA00900E3B1200B4D0E0D082D083021EE920DB
:101EEA00A514C0027A0A120039D00220A50830A52A
:101EFA00FD30A6FD80030220FB191210D9E9B400B7
:101F0A0079C0E07401141200C1D0E0C083C082C05D
:101F1A00E0900D1A1200B4D0E0D082D083C0E074F1
:101F2A0001141200C1D0E0C083C082C0E0900DF756
:101F3A001200B4D0E0D082D083EA5402B40238C08E
:101F4A00E07401141200BFD0E0C083C082C0E090E8
:101F5A000D1A1200B4D0E0D082D083C0E07401140C
:101F6A001200BFD0E0C083C082C0E0900E4C1200C5
:101F7A00B4D0E0D082D0830220FBE9B40179C0E07A
:101F8A007401141200C1D0E0C083C082C0E0900D79
:101F9A001A1200B4D0E0D082D083C0E074011412C7
:101FAA0000C1D0E0C083C082C0E0900E081200B425
:101FBA00D0E0D082D083EA5402B40238C0E074017F
:101FCA00141200BFD0E0C083C082C0E0900D1A1284
:101FDA0000B4D0E0D082D083C0E07401141200BFF4
:101FEA00D0E0C083C082C0E0900E4C1200B4D0E0B2
:101FFA00D082D0830220FBE9B40279C0E0740114D4
:10200A001200C1D0E0C083C082C0E0900D1A120055
:10201A00B4D0E0D082D083C0E07401141200C1D0E1
:10202A00E0C083C082C0E0900E191200B4D0E0D0A4
:10203A0082D083EA5402B40238C0E0740114120058
:10204A00BFD0E0C083C082C0E0900D1A1200B4D0A5
:10205A00E0D082D083C0E07401141200BFD0E0C087
:10206A0083C082C0E0900E2A1200B4D0E0D082D0A1
:10207A00830220FBE9B40379C0E07401141200C1A1
:10208A00D0E0C083C082C0E0900D1A1200B4D0E044
:10209A00D082D083C0E07401141200C1D0E0C083A2
:1020AA00C082C0E0900E191200B4D0E0D082D08372
:1020BA00EA5402B40238C0E07401141200BFD0E03E
:1020CA00C083C082C0E0900D1A1200B4D0E0D08262
:1020DA00D083C0E07401141200BFD0E0C083C08274
:1020EA00C0E0900E3B1200B4D0E0D082D083022030
:1020FA00FBE8B40105780002233F20A711C0027A49
:10210A0032120039D00220A70530A7FD800302232E
:10211A0039E9B400061200ED022143E9B4010612BE
:10212A0000EC022143E9B40206122355022143E9D5
:10213A00B403061225330221437900E9B40079C0B9
:10214A00E07401141200C1D0E0C083C082C0E090E4
:10215A000D1A1200B4D0E0D082D083C0E07401140A
:10216A001200C1D0E0C083C082C0E0900DF7120017
:10217A00B4D0E0D082D083EA5402B40238C0E0740A
:10218A0001141200BFD0E0C083C082C0E0900D1AD3
:10219A001200B4D0E0D082D083C0E07401141200DF
:1021AA00BFD0E0C083C082C0E0900E4C1200B4D011
:1021BA00E0D082D083022339E9B40179C0E0740106
:1021CA00141200C1D0E0C083C082C0E0900D1A1280
:1021DA0000B4D0E0D082D083C0E07401141200C1F0
:1021EA00D0E0C083C082C0E0900E081200B4D0E0F4
:1021FA00D082D083EA5402B40238C0E074011412C7
:10220A0000BFD0E0C083C082C0E0900D1A1200B4B3
:10221A00D0E0D082D083C0E07401141200BFD0E0B5
:10222A00C083C082C0E0900E4C1200B4D0E0D082CD
:10223A00D083022339E9B40279C0E0740114120090
:10224A00C1D0E0C083C082C0E0900D1A1200B4D0A1
:10225A00E0D082D083C0E07401141200C1D0E0C083
:10226A0083C082C0E0900E191200B4D0E0D082D0B0
:10227A0083EA5402B40238C0E07401141200BFD0D9
:10228A00E0C083C082C0E0900D1A1200B4D0E0D042
:10229A0082D083C0E07401141200BFD0E0C083C0B2
:1022AA0082C0E0900E2A1200B4D0E0D082D083021D
:1022BA002339E9B40379C0E07401141200C1D0E0F3
:1022CA00C083C082C0E0900D1A1200B4D0E0D08260
:1022DA00D083C0E07401141200C1D0E0C083C08270
:1022EA00C0E0900E191200B4D0E0D082D083EA5434
:1022FA0002B40238C0E07401141200BFD0E0C083F7
:10230A00C082C0E0900D1A1200B4D0E0D082D0830F
:10231A00C0E07401141200BFD0E0C083C082C0E0E4
:10232A00900E3B1200B4D0E0D082D083022339123F
:10233A0000EC021CD7D0E0D007D006D005D004D0DC
:10234A0003D002D001D00012271122C000C0E0C081
:10235A00E07401141200C1D0E0C083C082C0E090D2
:10236A000D1A1200B4D0E0D082D083C0E0740114F8
:10237A001200BFD0E0C083C082C0E0900D1A1200E4
:10238A00B4D0E0D082D083C0E07401141200C1D06E
:10239A00E0C083C082C0E0900EA51200B4D0E0D0A5
:1023AA0082D083C0E07401141200BFD0E0C083C0A1
:1023BA0082C0E0900D1A1200B4D0E0D082D08378A7
:1023CA0000C0E07405141200BFD0E0C083C082C010
:1023DA00E0900EC71200B4D0E0D082D08320A714B8
:1023EA00C0027A32120039D00220A70830A7FDD0E5
:1023FA00E0D0002220A411C0027A32120039D002A1
:10240A0020A40530A4FD800302249408E8B4020441
:10241A0078007400B4003BC0E07405141200BFD009
:10242A00E0C083C082C0E0900EC71200B4D0E0D0F2
:10243A0082D083C0E0740C141200BFD0E0C083C005
:10244A0082C0E0900ECB1200B4D0E0D082D08302DA
:10245A002494C0E0740C141200BFD0E0C083C08280
:10246A00C0E0900EC91200B4D0E0D082D083C0E0A0
:10247A007405141200BFD0E0C083C082C0E0900E81
:10248A00CB1200B4D0E0D082D08320A620C0027A3A
:10249A000A120039D00220A61430A6FD30A5FDE8A4
:1024AA00B4000505320224B705310224B720A5205D
:1024BA00C0027A0A120039D00220A51430A5FD30D4
:1024CA00A6FDE8B4000515320224DA15310224DA31
:1024DA00853247754800754900754A00120129C0BE
:1024EA00E07401141200BFD0E0C000A8501200C668
:1024FA00D000C000A84F1200C6D0008531477548E9
:10250A0000754900754A00120129C0E0740D1412C1
:10251A0000BFD0E0C000A8501200C6D000C000A87A
:10252A004F1200C6D0000223E7C000C0E0C0E0742A
:10253A0001141200C1D0E0C083C082C0E0900D1A1D
:10254A001200B4D0E0D082D083C0E074011412002B
:10255A00BFD0E0C083C082C0E0900D1A1200B4D090
:10256A00E0D082D083C0E07401141200C1D0E0C070
:10257A0083C082C0E0900EB61200B4D0E0D082D000
:10258A0083C0E07401141200BFD0E0C083C082C0CF
:10259A00E0900D1A1200B4D0E0D082D0837800C047
:1025AA00E07405141200BFD0E0C083C082C0E0907E
:1025BA000EC71200B4D0E0D082D08320A714C00284
:1025CA007A32120039D00220A70830A7FDD0E0D015
:1025DA00002220A411C0027A32120039D00220A4AB
:1025EA000530A4FD800302267208E8B402047800CC
:1025FA007400B4003BC0E07405141200BFD0E0C000
:10260A0083C082C0E0900EC71200B4D0E0D082D05E
:10261A0083C0E0740C141200BFD0E0C083C082C033
:10262A00E0900ECB1200B4D0E0D082D083022672A2
:10263A00C0E0740C141200BFD0E0C083C082C0E0B6
:10264A00900EC91200B4D0E0D082D083C0E07405E5
:10265A00141200BFD0E0C083C082C0E0900ECB123B
:10266A0000B4D0E0D082D08320A620C0027A0A1219
:10267A000039D00220A61430A6FD30A5FDE8B4002A
:10268A0005053D022695053902269520A520C0029A
:10269A007A0A120039D00220A51430A5FD30A6FD11
:1026AA00E8B40005153D0226B815390226B8853D5D
:1026BA0047754800754900754A00120129C0E0743F
:1026CA0001141200BFD0E0C000A8501200C6D0000A
:1026DA00C000A84F1200C6D000853947754800755A
:1026EA004900754A00120129C0E0740D141200BF96
:1026FA00D0E0C000A8501200C6D000C000A84F12F7
:10270A0000C6D0000225C5C000A830C000C0E0C085
:10271A00E07401141200C1D0E0C083C082C0E0900E
:10272A000D1A1200B4D0E0D082D083C0E074011434
:10273A001200BFD0E0C083C082C0E0900D1A120020
:10274A00B4D0E0D082D083C0E07401141200C1D0AA
:10275A00E0C083C082C0E0900E6B1200B4D0E0D01B
:10276A0082D083C0E07401141200BFD0E0C083C0DD
:10277A0082C0E0900E7B1200B4D0E0D082D08320D9
:10278A00A768C0027A32120039D00220A75C30A7AB
:10279A00FDE530B40117C0E0E531F533E539F53A26
:1027AA00E532F536E53DF53ED0E00227EBB40217F7
:1027BA00C0E0E531F534E539F53BE532F537E53D7D
:1027CA00F53FD0E00227D1B40317C0E0E531F53573
:1027DA00E539F53CE532F538E53DF540D0E002272C
:1027EA00EBD0E0D0008830D00022E530B40116C02A
:1027FA00E0740D141200BFD0E0C0E0743112007E04
:10280A00D0E0022841B40216C0E0740D141200BFD1
:10281A00D0E0C0E0743212007ED0E0022841B40356
:10282A0016C0E0740D141200BFD0E0C0E074331279
:10283A00007ED0E002284120A618C0027A32120097
:10284A0039D00220A60C30A6FD04F530B404037575
:10285A00300102278975817F120088120F6B120CD2
:10286A00A9C000C001C002C003C004C005C006C0A0
:10287A0007C0E0780079007A0074007401B401019D
:10288A000A7401B401010A7401B401010AE9B4002D
:10289A0079C0E07401141200C1D0E0C083C082C0C4
:1028AA00E0900D1A1200B4D0E0D082D083C0E07458
:1028BA0001141200C1D0E0C083C082C0E0900D2B89
:1028CA001200B4D0E0D082D083EA5402B40238C0F5
:1028DA00E07401141200BFD0E0C083C082C0E0904F
:1028EA000D1A1200B4D0E0D082D083C0E074011473
:1028FA001200BFD0E0C083C082C0E0900D801200F9
:10290A00B4D0E0D082D083022A8BE9B40179C0E046
:10291A007401141200C1D0E0C083C082C0E0900DDF
:10292A001A1200B4D0E0D082D083C0E0740114122D
:10293A0000C1D0E0C083C082C0E0900D3C1200B458
:10294A00D0E0D082D083EA5402B40238C0E07401E5
:10295A00141200BFD0E0C083C082C0E0900D1A12EA
:10296A0000B4D0E0D082D083C0E07401141200BF5A
:10297A00D0E0C083C082C0E0900D801200B4D0E0E5
:10298A00D082D083022A8BE9B40279C0E0740114A0
:10299A001200C1D0E0C083C082C0E0900D1A1200BC
:1029AA00B4D0E0D082D083C0E07401141200C1D048
:1029BA00E0C083C082C0E0900D4D1200B4D0E0D0D8
:1029CA0082D083EA5402B40238C0E07401141200BF
:1029DA00BFD0E0C083C082C0E0900D1A1200B4D00C
:1029EA00E0D082D083C0E07401141200BFD0E0C0EE
:1029FA0083C082C0E0900D5E1200B4D0E0D082D0D5
:102A0A0083022A8BE9B40379C0E07401141200C16D
:102A1A00D0E0C083C082C0E0900D1A1200B4D0E0AA
:102A2A00D082D083C0E07401141200C1D0E0C08308
:102A3A00C082C0E0900D4D1200B4D0E0D082D083A5
:102A4A00EA5402B40238C0E07401141200BFD0E0A4
:102A5A00C083C082C0E0900D1A1200B4D0E0D082C8
:102A6A00D083C0E07401141200BFD0E0C083C082DA
:102A7A00C0E0900D6F1200B4D0E0D082D083022A59
:102A8A008B20A614C0027A0A120039D00220A608A6
:102A9A0030A6FD30A5FD8003022C9D091210D9E94C
:102AAA00B40079C0E07401141200C1D0E0C083C040
:102ABA0082C0E0900D1A1200B4D0E0D082D083C058
:102ACA00E07401141200C1D0E0C083C082C0E0905B
:102ADA000D2B1200B4D0E0D082D083EA5402B402A3
:102AEA0038C0E07401141200BFD0E0C083C082C0B5
:102AFA00E0900D1A1200B4D0E0D082D083C0E07406
:102B0A0001141200BFD0E0C083C082C0E0900D80E3
:102B1A001200B4D0E0D082D083022C9DE9B40179AE
:102B2A00C0E07401141200C1D0E0C083C082C0E0CA
:102B3A00900D1A1200B4D0E0D082D083C0E07401A4
:102B4A00141200C1D0E0C083C082C0E0900D3C12D4
:102B5A0000B4D0E0D082D083EA5402B40238C0E094
:102B6A007401141200BFD0E0C083C082C0E0900D8F
:102B7A001A1200B4D0E0D082D083C0E074011412DB
:102B8A0000BFD0E0C083C082C0E0900D801200B4C4
:102B9A00D0E0D082D083022C9DE9B40279C0E074DF
:102BAA0001141200C1D0E0C083C082C0E0900D1AA7
:102BBA001200B4D0E0D082D083C0E07401141200B5
:102BCA00C1D0E0C083C082C0E0900D4D1200B4D0E5
:102BDA00E0D082D083EA5402B40238C0E07401140F
:102BEA001200BFD0E0C083C082C0E0900D1A12006C
:102BFA00B4D0E0D082D083C0E07401141200BFD0F8
:102C0A00E0C083C082C0E0900D5E1200B4D0E0D074
:102C1A0082D083022C9DE9B40379C0E074011412B6
:102C2A0000C1D0E0C083C082C0E0900D1A1200B487
:102C3A00D0E0D082D083C0E07401141200C1D0E089
:102C4A00C083C082C0E0900D4D1200B4D0E0D082A3
:102C5A00D083EA5402B40238C0E07401141200BFEF
:102C6A00D0E0C083C082C0E0900D1A1200B4D0E058
:102C7A00D082D083C0E07401141200BFD0E0C083B8
:102C8A00C082C0E0900D6F1200B4D0E0D082D08331
:102C9A00022C9D20A514C0027A0A120039D0022003
:102CAA00A50830A5FD30A6FD8003022EAF1912102B
:102CBA00D9E9B40079C0E07401141200C1D0E0C0AF
:102CCA0083C082C0E0900D1A1200B4D0E0D082D046
:102CDA0083C0E07401141200C1D0E0C083C082C076
:102CEA00E0900D2B1200B4D0E0D082D083EA5402D7
:102CFA00B40238C0E07401141200BFD0E0C083C02F
:102D0A0082C0E0900D1A1200B4D0E0D082D083C005
:102D1A00E07401141200BFD0E0C083C082C0E0900A
:102D2A000D801200B4D0E0D082D083022EAFE9B475
:102D3A000179C0E07401141200C1D0E0C083C082DE
:102D4A00C0E0900D1A1200B4D0E0D082D083C0E067
:102D5A007401141200C1D0E0C083C082C0E0900D9B
:102D6A003C1200B4D0E0D082D083EA5402B40238D4
:102D7A00C0E07401141200BFD0E0C083C082C0E07A
:102D8A00900D1A1200B4D0E0D082D083C0E0740152
:102D9A00141200BFD0E0C083C082C0E0900D801240
:102DAA0000B4D0E0D082D083022EAFE9B40279C059
:102DBA00E07401141200C1D0E0C083C082C0E09068
:102DCA000D1A1200B4D0E0D082D083C0E07401148E
:102DDA001200C1D0E0C083C082C0E0900D4D120045
:102DEA00B4D0E0D082D083EA5402B40238C0E0748E
:102DFA0001141200BFD0E0C083C082C0E0900D1A57
:102E0A001200B4D0E0D082D083C0E0740114120062
:102E1A00BFD0E0C083C082C0E0900D5E1200B4D083
:102E2A00E0D082D083022EAFE9B40379C0E0740106
:102E3A00141200C1D0E0C083C082C0E0900D1A1203
:102E4A0000B4D0E0D082D083C0E07401141200C173
:102E5A00D0E0C083C082C0E0900D4D1200B4D0E033
:102E6A00D082D083EA5402B40238C0E0740114124A
:102E7A0000BFD0E0C083C082C0E0900D1A1200B437
:102E8A00D0E0D082D083C0E07401141200BFD0E039
:102E9A00C083C082C0E0900D6F1200B4D0E0D0822F
:102EAA00D083022EAFE8B4010578000230F320A7E0
:102EBA0011C0027A32120039D00220A70530A7FDCC
:102ECA0080030230EDE9B4000612329D022EF7E9C2
:102EDA00B40106121A66022EF7E9B402061211B9F3
:102EEA00022EF7E9B40306123105022EF77900E93A
:102EFA00B40079C0E07401141200C1D0E0C083C0EC
:102F0A0082C0E0900D1A1200B4D0E0D082D083C003
:102F1A00E07401141200C1D0E0C083C082C0E09006
:102F2A000D2B1200B4D0E0D082D083EA5402B4024E
:102F3A0038C0E07401141200BFD0E0C083C082C060
:102F4A00E0900D1A1200B4D0E0D082D083C0E074B1
:102F5A0001141200BFD0E0C083C082C0E0900D808F
:102F6A001200B4D0E0D082D0830230EDE9B4017906
:102F7A00C0E07401141200C1D0E0C083C082C0E076
:102F8A00900D1A1200B4D0E0D082D083C0E0740150
:102F9A00141200C1D0E0C083C082C0E0900D3C1280
:102FAA0000B4D0E0D082D083EA5402B40238C0E040
:102FBA007401141200BFD0E0C083C082C0E0900D3B
:102FCA001A1200B4D0E0D082D083C0E07401141287
:102FDA0000BFD0E0C083C082C0E0900D801200B470
:102FEA00D0E0D082D0830230EDE9B40279C0E07437
:102FFA0001141200C1D0E0C083C082C0E0900D1A53
:10300A001200B4D0E0D082D083C0E0740114120060
:10301A00C1D0E0C083C082C0E0900D4D1200B4D090
:10302A00E0D082D083EA5402B40238C0E0740114BA
:10303A001200BFD0E0C083C082C0E0900D1A120017
:10304A00B4D0E0D082D083C0E07401141200BFD0A3
:10305A00E0C083C082C0E0900D5E1200B4D0E0D020
:10306A0082D0830230EDE9B40379C0E0740114120E
:10307A0000C1D0E0C083C082C0E0900D1A1200B433
:10308A00D0E0D082D083C0E07401141200C1D0E035
:10309A00C083C082C0E0900D4D1200B4D0E0D0824F
:1030AA00D083EA5402B40238C0E07401141200BF9B
:1030BA00D0E0C083C082C0E0900D1A1200B4D0E004
:1030CA00D082D083C0E07401141200BFD0E0C08364
:1030DA00C082C0E0900D6F1200B4D0E0D082D083DD
:1030EA000230ED121125022A8BD0E0D007D006D08B
:1030FA0005D004D003D002D001D000C0E07401147E
:10310A001200C1D0E0C083C082C0E0900D1A120044
:10311A00B4D0E0D082D083C0E07401141200BFD0D2
:10312A00E0C083C082C0E0900D1A1200B4D0E0D093
:10313A0082D083C0E07401141200C1D0E0C083C001
:10314A0082C0E0900F491200B4D0E0D082D083C090
:10315A00E07401141200BFD0E0C083C082C0E090C6
:10316A000F5A1200B4D0E0D082D083C0027AFA1289
:10317A000039D002C0027AFA120039D002C0027AAB
:10318A00FA120039D00220A710C0027A321200398E
:10319A00D00220A70430A7FD2212117C855A478548
:1031AA005B48754900754A00120129C0E074011490
:1031BA001200C1D0E0C000A8511200C6D000C00061
:1031CA00A8501200C6D000C0E0742E12007ED0E0D3
:1031DA00C000A84F1200C6D000855C47855D4875BF
:1031EA004900754A00120129C0E07401141200BF97
:1031FA00D0E0C000A8511200C6D000C000A85012EA
:10320A0000C6D000C0E0742E12007ED0E0C000A834
:10321A004F1200C6D000855E47855F487549007524
:10322A004A00120129C0E0740A141200C1D0E0C099
:10323A0000A8511200C6D000C000A8501200C6D083
:10324A0000C0E0742E12007ED0E0C000A84F120029
:10325A00C6D000857D47857E48754900754A0012AB
:10326A000129C0E0740A141200BFD0E0C000A851BE
:10327A001200C6D000C000A8501200C6D000C0E09C
:10328A00742E12007ED0E0C000A84F1200C6D000F3
:10329A00023190C0E0E530B40116C0E0E533F541F3
:1032AA00E53AF542E536F543E53EF544D0E08032AD
:1032BA00B40216C0E0E534F541E53BF542E537F5E1
:1032CA0043E53FF544D0E08019B40316C0E0E53584
:1032DA00F541E53CF542E538F543E540F544D0E0F3
:1032EA008000C0E07401141200C1D0E0C083C08223
:1032FA00C0E0900D1A1200B4D0E0D082D083C0E0B2
:10330A007401141200BFD0E0C083C082C0E0900DE7
:10331A001A1200B4D0E0D082D083755400755500DB
:10332A0075560075570075450112353AD21AD21BE7
:10333A00C202D21C1238237900E9B40079C0E074C1
:10334A0001141200C1D0E0C083C082C0E0900D1AFF
:10335A001200B4D0E0D082D083C0E074011412000D
:10336A00C1D0E0C083C082C0E0900D2B1200B4D05F
:10337A00E0D082D083EA5402B40238C0E074011467
:10338A001200BFD0E0C083C082C0E0900D1A1200C4
:10339A00B4D0E0D082D083C0E07401141200BFD050
:1033AA00E0C083C082C0E0900D801200B4D0E0D0AB
:1033BA0082D083023537E9B40179C0E0740114126E
:1033CA0000C1D0E0C083C082C0E0900D1A1200B4E0
:1033DA00D0E0D082D083C0E07401141200C1D0E0E2
:1033EA00C083C082C0E0900D3C1200B4D0E0D0820D
:1033FA00D083EA5402B40238C0E07401141200BF48
:10340A00D0E0C083C082C0E0900D1A1200B4D0E0B0
:10341A00D082D083C0E07401141200BFD0E0C08310
:10342A00C082C0E0900D801200B4D0E0D082D08378
:10343A00023537E9B40279C0E07401141200C1D030
:10344A00E0C083C082C0E0900D1A1200B4D0E0D070
:10345A0082D083C0E07401141200C1D0E0C083C0DE
:10346A0082C0E0900D4D1200B4D0E0D082D083EA41
:10347A005402B40238C0E07401141200BFD0E0C094
:10348A0083C082C0E0900D1A1200B4D0E0D082D07E
:10349A0083C0E07401141200BFD0E0C083C082C0B0
:1034AA00E0900D5E1200B4D0E0D082D083023537AE
:1034BA00E9B40379C0E07401141200C1D0E0C083FA
:1034CA00C082C0E0900D1A1200B4D0E0D082D0833E
:1034DA00C0E07401141200C1D0E0C083C082C0E011
:1034EA00900D4D1200B4D0E0D082D083EA5402B4D9
:1034FA000238C0E07401141200BFD0E0C083C08259
:10350A00C0E0900D1A1200B4D0E0D082D083C0E09F
:10351A007401141200BFD0E0C083C082C0E0900DD5
:10352A006F1200B4D0E0D082D083023537D0E022C7
:10353A002008030235430235FBE545B40122120097
:10354A00F0C0E07407141200C1D0E0C083C082C08A
:10355A00E0900EF11200B4D0E0D082D0830236EEB1
:10356A00B402221200F0C0E0740D141200C1D0E0BF
:10357A00C083C082C0E0900EFC1200B4D0E0D082BA
:10358A00D0830236EEB403221200F0C0E0740714AE
:10359A001200C1D0E0C083C082C0E0900F011200C7
:1035AA00B4D0E0D082D0830236EEB404221200F006
:1035BA00C0E0740B141200C1D0E0C083C082C0E026
:1035CA00900F0C1200B4D0E0D082D0830236EE12F3
:1035DA0000F0C0E0740A141200C1D0E0C083C082B7
:1035EA00C0E0900F131200B4D0E0D082D08302362C
:1035FA00EE1200F0C0E0740C141200C1D0E0C083D7
:10360A00C082C0E0900F1B1200B4D0E0D082D083F9
:10361A00856447754800754900754A00120129C03A
:10362A00E07407141200C1D0E0C000A8501200C60E
:10363A00D000C000A84F1200C6D000E545B4011F53
:10364A00C0E0740C141200C1D0E0C083C082C0E094
:10365A00900ED61200B4D0E0D082D0830236EEB4F7
:10366A00021FC0E0740D141200C1D0E0C083C082F2
:10367A00C0E0900ED61200B4D0E0D082D0830236D9
:10368A00EEB4031FC0E0740E141200C1D0E0C08370
:10369A00C082C0E0900ED61200B4D0E0D082D083AF
:1036AA000236EEB4041FC0E0740F141200C1D0E059
:1036BA00C083C082C0E0900ED61200B4D0E0D0829F
:1036CA00D0830236EEC0E07410141200C1D0E0C0FC
:1036DA0083C082C0E0900ED61200B4D0E0D082D06F
:1036EA00830236EE22C0E07401141200BFD0E0C09B
:1036FA0000A8551200C6D000C000A8541200C6D0B7
:10370A0000C0E0740D141200BFD0E0C000A8571228
:10371A0000C6D000C000A8561200C6D0002285629A
:10372A0047856348754900754A00120129C0E0744B
:10373A0001141200C1D0E0C000A8501200C6D00087
:10374A00C000A84F1200C6D0002212375B1237827F
:10375A0022E55575F00AA4FFE554C4540F2F75F0FD
:10376A000AA4FFE554540F2F9432700BE562943C7F
:10377A005005D202437F402222C0E0740114120095
:10378A00C1D0E0C083C082C0E0900D1A1200B4D04C
:10379A00E0D082D083C0E07401141200C1D0E0C02E
:1037AA0083C082C0E0900F211200B4D0E0D082D052
:1037BA0083C0E07401141200BFD0E0C083C082C08D
:1037CA00E0900D1A1200B4D0E0D082D083C0E07429
:1037DA0001141200BFD0E0C083C082C0E0900F3055
:1037EA001200B4D0E0D082D08375640AD214754531
:1037FA0000120C95C0027AFA120039D002C0027A7D
:10380A00FA120039D002C0027AFA120039D002C084
:10381A00027AFA120039D002221237542002030225
:10382A00382F0237831236EF12372830090D123536
:10383A003AC209300E05C20E023783E545208212CC
:10384A00C0027A32120039D0022082063082FD028A
:10385A003783B4012A301A08E543F564D214C21A30
:10386A00E562B5430280055003023823C2030545C9
:10387A0075560075570012353A120C71023823B486
:10388A00022EE55775F00AA4FFE556C4540F2F75AA
:10389A00F00AA4FFE556540F2FB54111C20475452D
:1038AA000375560075570012353A120C7102382307
:1038BA00B4032E301B08E544F564D214C21BE5623A
:1038CA00B5440280055003023823C20575450475C4
:1038DA00560075570012353A120C71023823023815
:1038EA0023B4042EE55775F00AA4FFE556C4540F15
:1038FA002F75F00AA4FFE556540F2FB5422CC206C5
:10390A0075450575560075570012353A120C7D0239
:10391A00382375640AD214E562B43C028005400378
:0D392A00023823120C897545002202382353
:00000001FF
