:030000000201F802
:03001B00020103DC
:03002B0002011BB4
:10002E00C00078B10000D8FCD00022C000C0017919
:10003E002D78A6D8FED9FADAF6D001D00022D293C6
:10004E0012002EC29322A2E792B5A2E692B4A2E5C6
:10005E0092B3A2E492B212004C12002EA2E392B519
:10006E00A2E292B4A2E192B3A2E092B212004C22AA
:10007E00D291020054C291020054C293C2927433C0
:10008E0012008374331200837432120083742812A8
:10009E000083740C1200837401120083C0027A0272
:1000AE00120039D00222E493600612007EA380F67D
:1000BE002244404480020083C0E0E8C4540F443020
:1000CE0012007EE8540F443012007ED0E022C0E0D1
:1000DE00E8C4540F4430E8540F4430D0E022E58990
:1000EE00540F4410F589758DEA758BE875F5EA7530
:1000FE00F3E8D2AB22B2B73275C80075CDA975CC74
:10010E009A75CBA975CA9AE4D2ADD2CA22C2CFC013
:10011E00E0C0D03000080530E53070020531300106
:10012E00080532E532700205333002080534E53435
:10013E0070020535E530B42C0EE531B40109B28EEE
:10014E00C200E4F530F531E532B4E80EE533B40320
:10015E0009B28EC201E4F532F533E534B49607E503
:10016E0035B40002B28EE534B42C07E535B4010285
:10017E00B28EE534B4C207E535B40102B28EE53471
:10018E00B45807E535B40202B28EE534B4EE07E595
:10019E0035B40202B28EE534B48407E535B40302F9
:1001AE00B28EE534B41A07E535B40402B28EE534E6
:1001BE00B4B007E535B40402B28EE534B44607E5B3
:1001CE0035B40502B28EE534B4DC07E535B405026C
:1001DE00B28EE534B4720EE535B40609B28EC202A3
:1001EE00E4F534F535D0D0D0E03275817F1200ECD5
:1001FE00120106D2AF12008820C515C0027A641211
:10020E000039D00220C509E4F530F531D200B28EA6
:10021E0020A515C0027A64120039D00220A509E487
:10022E00F532F533D201B28E20A6CDC0027A641219
:10023E000039D00220A6C1E4F534F535D202B28ED3
:03024E00020206A3
:00000001FF
