:030000000201DB1F
:0100030032CA
:01000B0032C2
:0100130032BA
:01001B0032B2
:030023000200EAEE
:01002B0032A2
:10002C00C00078B10000D8FCD00022C000C001791B
:10003C002D78A6D8FED9FADAF6D001D00022D293C8
:10004C0012002CC29322A2E792B5A2E692B4A2E5CA
:10005C0092B3A2E492B212004A12002CA2E392B51F
:10006C00A2E292B4A2E192B3A2E092B212004A22AE
:10007C00D291020052C291020052C293C2927433C6
:10008C0012008174331200817432120081742812B0
:10009C000081740C1200817401120081C0027A027A
:1000AC00120037D00222E493600612007CA380F683
:1000BC002244404480020081C0E0E8C4540F443024
:1000CC0012007CE8540F443012007CD0E022C0E0D7
:0E00DC00E8C4540F4430E8540F4430D0E02202
:1000EA00309905D200C29932E599C298F530B20129
:1000FA0020010CC0E07401141200BFD0E0800AC0D5
:10010A00E07401141200BDD0E0A2E7E492E04430AA
:10011A0012007CE530A2E6E492E0443012007CE56D
:10012A0030A2E5E492E0443012007CE530A2E4E437
:10013A0092E0443012007CE530A2E3E492E04430DD
:10014A0012007CE530A2E2E492E0443012007CE541
:10015A0030A2E1E492E0443012007CE530A2E0E40F
:10016A0092E0443012007CC0E0743C12007CD0E083
:10017A0020010CC0E07409141200BDD0E0800AC04E
:10018A00E07409141200BFD0E0C0E0742012007CB1
:10019A00D0E03279DE78A6D8FED9FA4387807598FE
:1001AA0052759B00759AF4759B1ED2ACD2BC22453F
:1001BA0063686F26626974206578616D696E65008F
:1001CA002020202020202020202020202020202025
:1001DA000075817F12008612019DD2AFC083C08252
:1001EA00C0E09001CA1200B2D0E0D082D083C083AE
:1001FA00C082C0E09001CA1200B2D0E0D082D0839F
:02020A0080FE74
:00000001FF
