:030000000228468D
:0100030032CA
:01000B0032C2
:0100130032BA
:03001B000205A536
:04002300020FF132A5
:03002B000205C10A
:10002E00C00078B10000D8FCD00022C000C0017919
:10003E002D78A6D8FED9FADAF6D001D00022D293C6
:10004E0012002EC29322A2E792B5A2E692B4A2E5C6
:10005E0092B3A2E492B212004C12002EA2E392B519
:10006E00A2E292B4A2E192B3A2E092B212004C22AA
:10007E00D291020054C291020054C293C2927433C0
:10008E0012008374331200837432120083742812A8
:10009E000083740C1200837401120083C0027A0272
:1000AE00120039D00222E493600612007EA380F67D
:1000BE002244404480020083C0E0E8C4540F443020
:1000CE0012007EE8540F443012007ED0E022C0E0D1
:0E00DE00E8C4540F4430E8540F4430D0E02200
:1000EC0022780122C0E07407141200C1D0E0C08352
:1000FC00C082C0E0900EBA1200B4D0E0D082D0839F
:10010C00C0E07409141200C1D0E0C083C082C0E00A
:0D011C00900EBA1200B4D0E0D082D0832241
:10012900C0E0C0D0C000C001C002E4F54FF550F5F1
:1001390051F552F5537A20E54AA2E779047847E662
:1001490033F608D9FA7905784FE636D4F608D9F99D
:10015900DAE5D002D001D000D0D0D0E022C0E0C092
:10016900D0C000C001C002E4F54FF550F551F55279
:10017900F5537A20E54AA2E779047847E633F60889
:10018900D9FA7905784FC0D0E6243320E70224D084
:1001990020E30224FDD0D033F608D9EADAD6D0021A
:1001A900D001D000D0D0D0E022C0E0C0D0C000C083
:1001B90001C0027A207905C37853E613C0D030E72D
:1001C9000224D030E30224FDF618D0D0D9EC79040A
:1001D900784AE613F618D9FADADBD002D001D00052
:1001E900D0D0D0E022C0E0C0D0E547254BF547E5A7
:1001F90048354CF548E549354DF549E54A354EF55B
:100209004AD0D0D0E022C0E0C0D0C3E547954BF535
:1002190047E548954CF548E549954DF549E54A9531
:100229004EF54AD0D0D0E022C0E0C0D0C3E5479512
:100239004BE548954CE549954DE54A954E9200D0D8
:10024900D0D0E022C0E0C0D0C3E54B9547E54C953E
:1002590048E54D9549E54E954A9200D0D0D0E02227
:10026900C0E0C0D0C200C3E54B95477014E54C957A
:1002790048700EE54D95497008E54E954A7002D2D1
:1002890000D0D0D0E02212026920000302024D22E0
:1002990012026920000302023122C0E0C0F0C0D07E
:1002A900C000C001C002C003E547854BF0A4F8A90E
:1002B900F0E548854BF0A429F9E435F0FAE54785DE
:1002C9004CF0A429F9E5F03AFAE433FBE549854B0A
:1002D900F0A42AFAE5F03BFBE548854CF0A42AFA9C
:1002E900E5F03BFBE547854DF0A42AFAE5F03BFB39
:1002F900E54A854BF0A42BFBE549854CF0A42BFB83
:10030900E548854DF0A42BFBE547854EF0A42BFB72
:100319008B4A8A4989488847D003D002D001D00046
:10032900D0D0D0F0D0E022C0E0C0D0C000C001C021
:1003390002C003C0047C20E4F8F9FAFBC3E54733A3
:10034900F547E54833F548E54933F549E54A33F5D5
:100359004AE833F8E933F9EA33FAEB33FBC3E895B2
:100369004BE9954CEA954DEB954E4013E8954BF8C2
:10037900E9954CF9EA954DFAEB954EFB434701DCBB
:10038900BBD004D003D002D001D000D0D0D0E0221D
:1003990079DE78A6D8FED9FA438780759852759B7D
:1003A90000759AF4759B1ED2ACD2BC22B2B630E568
:1003B9001630E1047530012230E204753002223032
:1003C900E3047530032222A2E7920DA2E6920EA25F
:1003D900E4920FA2E39210A2E29211A2E19212A278
:1003E900E0921322E56414F5752402F574940B75F3
:1003F9007A14754BB4754C00754D00754E00120298
:1004090031300005940C757A1EF57B22754B6475A5
:100419004C00754D00754E001202A3754E00754DC6
:100429000085614C85604B12020F754B12754C07A4
:10043900754D00754E001202A3754BEF754CCD75C5
:100449004D00754E0012020F754B40754C42754DAB
:100459000F754E0012033085477622E4F54AF549B7
:10046900F548F54EF54DF54C2230142EC214120400
:1004790064856447754B32754C00754D00754E00A7
:1004890012023120000E1203ED120415D215C21604
:10049900C2178006C215C216C21720150B201623D3
:1004A9002017307577008056E41204648562478509
:1004B9007B4B1202313000057577648041C215D239
:1004C90016C217D57A0280057577008031C215C228
:1004D90016D21785767712046485624785744B12A4
:1004E900028F20001385754B120231200002800E05
:1004F900E5772407F5778006E5779407F57785771B
:100509007822E578B40006F578D281800514F5786B
:10051900C28122E54AC0E0E549C0E0E548C0E0E51E
:1005290047C0E0E54EC0E0E54DC0E0E54CC0E0E580
:100539004BC0E0E553C0E0E552C0E0E551C0E0E55D
:1005490050C0E0E54FC0E0A200C0D022D0D0920058
:10055900D0E0F54FD0E0F550D0E0F551D0E0F552BC
:10056900D0E0F553D0E0F54BD0E0F54CD0E0F54DB7
:10057900D0E0F54ED0E0F547D0E0F548D0E0F549B8
:10058900D0E0F54A22E589540F4410F589758DEAC2
:10059900758BE875F5EA75F3E8D2AB22B2B7327517
:1005A900C80075CD5375CC3475CB5375CA34E4F591
:1005B90058F559D2ADD2CA22C2CFD2B6C0E0C0D006
:1005C900E54AC0E0E549C0E0E548C0E0E547C0E0EC
:1005D900E54EC0E0E54DC0E0E54CC0E0E54BC0E0CC
:1005E900E553C0E0E552C0E0E551C0E0E550C0E0A8
:1005F900E54FC0E0A200C0D00558E5587002055982
:10060900E558B4F43CE559B40137D201E4F558F59D
:1006190059E5542401D4F554B40007E5552401D40F
:10062900F555E5562401D4F556B40007E5572401DC
:10063900D4F557E5460546B40507B208D20975460B
:1006490000120BAA803DD0D09200D0E0F54FD0E047
:10065900F550D0E0F551D0E0F552D0E0F553D0E0B7
:10066900F54BD0E0F54CD0E0F54DD0E0F54ED0E0BB
:10067900F547D0E0F548D0E0F549D0E0F54AD0D0CB
:10068900D0E032D5790675790512050B803DD0D0B9
:100699009200D0E0F54FD0E0F550D0E0F551D0E030
:1006A900F552D0E0F553D0E0F54BD0E0F54CD0E071
:1006B900F54DD0E0F54ED0E0F547D0E0F548D0E073
:1006C900F549D0E0F54AD0D0D0E032C2A07B011282
:1006D90010947B80121094EC5403F5737B5512101F
:1006E900948C72D2A0754A00754900857348857249
:1006F90047754B9F754C09754D00754E001202A345
:10070900754B64754C00754D00754E0012033075BC
:100719004B00754C00754D00754E007400B4000512
:1007290012020F80031201EE754E00754D008561AE
:100739004C85604B1201EE854866854765C2A07BF2
:10074900011210947B90121094EC5403F5737B55AD
:100759001210948C72D2A0754A00754900857348AD
:10076900857247754B9A754C09754D00754E001287
:1007790002A3754B64754C00754D00754E0012034C
:1007890030754B1E754C00754D00754E007401B4E3
:10079900000512020F80031201EE754E00754D001F
:1007A90085614C85604B1201EE85486A854769C2AF
:1007B900A07B011210947BA0121094EC5403F573E2
:1007C9007B551210948C72D2A0754A007549008528
:1007D9007348857247754B8D754C09754D00754E7B
:1007E900001202A3754B64754C00754D00754E00DF
:1007F900120330754B2C754C01754D00754E007404
:1008090001B4000512020F80031201EE754E007546
:100819004D0085614C85604B1201EE85486E854718
:100829006D120464856848856747754B63754C008C
:10083900754D00754E001202A385664C85654B12F5
:1008490001EE754B64754C00754D00754E00120331
:1008590030854868854767120464856C48856B470D
:10086900754B63754C00754D00754E001202A385DA
:100879006A4C85694B1201EE754B64754C00754DD8
:1008890000754E0012033085486C85476B1204646D
:10089900857048856F47754B63754C00754D0075BC
:1008A9004E001202A3856E4C856D4B1201EE754BFD
:1008B90064754C00754D00754E0012033085487003
:1008C90085476FD571487571FA85705B856F5A8553
:1008D9006C5D856B5C85685F85675E120954120BD8
:1008E9004AB218301828120472E545B4000280177C
:1008F900B40502801230870F200B03D57C10437F8B
:1009090008D20BD2028007757C0AC20BC202D0D072
:100919009200D0E0F54FD0E0F550D0E0F551D0E0AD
:10092900F552D0E0F553D0E0F54BD0E0F54CD0E0EE
:10093900F54DD0E0F54ED0E0F547D0E0F548D0E0F0
:10094900F549D0E0F54AD0D0D0E032C003C0041256
:100959000464855B48855A47754B64754C00754D31
:1009690000754E00120330AB47855D48855C4775BD
:100979004B64754C00754D00754E00120330AC4741
:100989001204648B478C4B12020F754B05120299A6
:10099900300005D20A0209B91204648C478B4B1244
:1009A900020F754B05120299300005D20A0209B9E6
:1009B900D004D003300A2CC20A120464855B48852E
:1009C9005A47855D4C855C4B1201EE754B02754C9F
:1009D90000754D00754E0012033085487E85477DB0
:1009E900020B28437F20C003C004120464855B48BE
:1009F900855A47754B64754C00754D00754E00124C
:100A09000330AB47855F48855E47754B64754C007D
:100A1900754D00754E00120330AC471204648B47C4
:100A29008C4B12020F754B05120299300005D20A40
:100A3900020A541204648C478B4B12020F754B0542
:100A4900120299300005D20A020A54D004D00330A8
:100A59000A2CC20A120464855B48855A47855F4C93
:100A6900855E4B1201EE754B02754C00754D007594
:100A79004E0012033085487E85477D020B28C0034E
:100A8900C004120464855D48855C47754B64754CE8
:100A990000754D00754E00120330AB47855F4885E0
:100AA9005E47754B64754C00754D00754E00120319
:100AB90030AC471204648B478C4B12020F754B0301
:100AC900120299300005D20A020AEC1204648C471A
:100AD9008B4B12020F754B03120299300005D20A93
:100AE900020AECD004D003300A2CC20A120464852D
:100AF9005D48855C47855F4C855E4B1201EE754B01
:100B090002754C00754D00754E0012033085487E04
:100B190085477D020B28855B7E855A7D437F10754D
:100B29004A00754900857E48857D47754B64754C3B
:100B390000754D00754E0012033085486385476284
:100B490022300CFDC20C857E99300CFDC20C857DCE
:100B590099E4F553F552F55185555085544F1201D5
:100B6900B2300CFDC20C854899300CFDC20C85478A
:100B790099E4F553F552F55185575085564F1201B1
:100B8900B2300CFDC20C854799E545427F300CFD1A
:100B9900C20C857F99757F00300CFDC20C75990ACE
:010BA9002229
:100BAA00D2D3301D0508E8700109301E050AEA7023
:100BBA00010B301F050CEC70010DE8B4960DE9B479
:100BCA000009B28ED2B7C21DE4F8F9EAB4EE0DEB11
:100BDA00B40209B28ED2B7C21EE4FAFBECB46406C0
:100BEA00EDB40002B28EECB4C806EDB40002B28EC7
:100BFA00ECB42C06EDB40102B28EECB49006EDB45E
:100C0A000102B28EECB4F406EDB40102B28EECB479
:100C1A005806EDB40202B28EECB4BC06EDB4020280
:100C2A00B28EECB42006EDB40302B28EECB48406A4
:100C3A00EDB40302B28EECB4E806EDB40302B28E50
:100C4A00ECB44C0DEDB40409B28ED2B7C21FE4FC69
:100C5A00FDC2D322D2D3E4F8F9D21DB28EC2D32276
:100C6A00D2D3E4FAFBD21EB28EC2D322D2D3E4FC90
:100C7A00FDD21FB28EC2D322D2D3E4F8F9FAFBFC1A
:100C8A00FDC21DC21EC21FC28EC2D322C0E07401A1
:100C9A00141200C1D0E0C083C082C0E0900D0712D8
:100CAA0000B4D0E0D082D083C0E07401141200BF37
:100CBA00D0E0C083C082C0E0900D071200B4D0E03B
:100CCA00D082D083C0E07401141200C1D0E0C08386
:100CDA00C082C0E0900D071200B4D0E0D082D08369
:100CEA00C0E07401141200BFD0E0C083C082C0E02B
:0D0CFA00900D071200B4D0E0D082D083220C
:100D070020202020202020202020202020202020DC
:100D17000053746172743C202053657474696E6764
:100D27007300537461727420203E53657474696E46
:100D3700677300537461727420202053657474695B
:100D47006E677300507265736574203C2020507283
:100D57006F626573005072657365742020203E5082
:100D6700726F62657300507265736574202020206E
:100D770050726F626573004261636B3C20202020D4
:100D870050726573657431004261636B20202020C7
:100D97003E50726573657431004261636B20202099
:100DA70020205072657365743100507265736574E5
:100DB700323C2050726573657433005072657365F9
:100DC7007432203E507265736574330050726573D8
:100DD70065743220205072657365743300536176F1
:100DE700653C2020202020204F74686572005361E5
:100DF70076652020202020203E4F746865720053BE
:100E0700617665202020202020204F7468657200BD
:100E1700536F616B2D543C205265666C6F772D5470
:100E270000536F616B2D54203E5265666C6F772DB2
:100E37005400536F616B2D5420205265666C6F7799
:100E47002D540053656C6563742050726573657427
:100E57000043686F6F736520707265736574202334
:100E670000746F207361766520746F3A0053657460
:100E770074696E67732053617665640053617665A4
:100E87002053657474696E67733F0054656D7020F5
:100E97002020204475726174696F6E0054656D700F
:100EA700202020204475726174696F6E003C003EFB
:100EB7000020002020202020202020004F007878CC
:100EC7007878787878780063636363630072727206
:100ED7007200747474740052616D70546F536F6153
:100EE7006B00536F616B0052616D70546F50656199
:100EF7006B005265666C6F7700436F6F6C696E6746
:100F0700002D2D2D2D2D0055736572206578636595
:100F17007074696F6E0041626F7274696E67004525
:100F270052524F5200434F4F4C0068656174005056
:100F3700726F6265312020202050726F6265330026
:100F470050726F62653220202020526573756C7471
:100F57000012058E1205A8120399D2AF75300175DC
:100F6700310075320075337375343C7535787536D5
:100F770096753796753896753900753A4B753B2DCA
:100F8700753C4B753D00753ED9753FD97540D97590
:100F97004100754200754300754400C202750300A5
:100FA700750400750500750600754500C209C2087D
:100FB70075540075550075560075570075E6007530
:100FC700E700756200756109756092756400D21457
:100FD700C20DC20EC20FD2B7C21DC21EC21FD2D3CC
:100FE700E4F8F9FAFBFCFDC2D322309905C299D285
:100FF7000C32C298C0E0C0D0E599200F081203B5A3
:10100700D0D0D0E032C20F301007F53275330080F0
:1010170020301107F5317532008016301207F53D83
:10102700753E00800C301307F539753A0080028051
:10103700CFC0E0E530B40117C0E0E531F533E5395D
:10104700F53AE532F536E53DF53ED0E002108AB4D3
:101057000217C0E0E531F534E539F53BE532F53700
:10106700E53DF53FD0E002108AB40317C0E0E53153
:10107700F535E539F53CE532F538E53DF540D0E0A5
:1010870002108AD0E0021007D2A2C2A322C0E07CDD
:10109700007D08EB33FB92A1D2A3A2A2EC33FCC2E2
:1010A700A3DDF0D0E022300CFDC20CF59922E493C9
:1010B70060061210ADA380F622EAB400057900029B
:1010C700110BEAB40111E9B4FF05790102110BB460
:1010D7000232790002110BEAB40211E9B4FF057973
:1010E7000202110BB4031D790002110BEAB40311BC
:1010F700E9B4FF05790302110BB404087900021162
:101107000B02110B22C0E0E530B40115C0E07407F3
:10111700141200BFD0E0C0E0743112007ED0E0802E
:1011270030B40215C0E07407141200BFD0E0C0E06D
:10113700743212007ED0E08018B40315C0E0740743
:10114700141200BFD0E0C0E0743312007ED0E080FC
:1011570000300D05123284C20DD0E02212046485DE
:101167005A47855B48754B88754C13754D00754E0E
:101177000012024D300003437F80855C47855D4840
:1011870012024D300003437F80855E47855F48121A
:10119700024D300003437F8022C000C001C002C05F
:1011A70003C004C005C006C007C0E0780079007A14
:1011B7000074007401B401010A7401B401010A74D6
:1011C70001B401010AE9B40079C0E0740114120006
:1011D700C1D0E0C083C082C0E0900D071200B4D038
:1011E700E0D082D083C0E07401141200C1D0E0C007
:1011F70083C082C0E0900D7E1200B4D0E0D082D0D0
:1012070083EA5402B40238C0E07401141200BFD05C
:10121700E0C083C082C0E0900D071200B4D0E0D0D8
:1012270082D083C0E07401141200BFD0E0C083C035
:1012370082C0E0900DD31200B4D0E0D082D08302F8
:1012470013C0E9B40179C0E07401141200C1D0E001
:10125700C083C082C0E0900D071200B4D0E0D082F6
:10126700D083C0E07401141200C1D0E0C083C082F3
:10127700C0E0900D8F1200B4D0E0D082D083EA5442
:1012870002B40238C0E07401141200BFD0E0C0837A
:10129700C082C0E0900D071200B4D0E0D082D083A6
:1012A700C0E07401141200BFD0E0C083C082C0E068
:1012B700900DD31200B4D0E0D082D0830213C0E9DE
:1012C700B40279C0E07401141200C1D0E0C083C039
:1012D70082C0E0900D071200B4D0E0D082D083C066
:1012E700E07401141200C1D0E0C083C082C0E09056
:1012F7000DA01200B4D0E0D082D083EA5402B40229
:1013070038C0E07401141200BFD0E0C083C082C0AF
:10131700E0900D071200B4D0E0D082D083C0E07413
:1013270001141200BFD0E0C083C082C0E0900DB1AD
:101337001200B4D0E0D082D0830213C0E9B403799D
:10134700C0E07401141200C1D0E0C083C082C0E0C5
:10135700900D071200B4D0E0D082D083C0E07401B2
:10136700141200C1D0E0C083C082C0E0900DA0126B
:1013770000B4D0E0D082D083EA5402B40238C0E08F
:101387007401141200BFD0E0C083C082C0E0900D8A
:10139700071200B4D0E0D082D083C0E074011412E9
:1013A70000BFD0E0C083C082C0E0900DC21200B47D
:1013B700D0E0D082D0830213C020A614C0027A0ADC
:1013C700120039D00220A60830A6FD30A5FD800303
:1013D7000215D2091210C0E9B40079C0E0740114F3
:1013E7001200C1D0E0C083C082C0E0900D07120098
:1013F700B4D0E0D082D083C0E07401141200C1D011
:10140700E0C083C082C0E0900D7E1200B4D0E0D06F
:1014170082D083EA5402B40238C0E0740114120087
:10142700BFD0E0C083C082C0E0900D071200B4D0E7
:10143700E0D082D083C0E07401141200BFD0E0C0B6
:1014470083C082C0E0900DD31200B4D0E0D082D028
:10145700830215D2E9B40179C0E07401141200C106
:10146700D0E0C083C082C0E0900D071200B4D0E086
:10147700D082D083C0E07401141200C1D0E0C083D1
:10148700C082C0E0900D8F1200B4D0E0D082D0832C
:10149700EA5402B40238C0E07401141200BFD0E06D
:1014A700C083C082C0E0900D071200B4D0E0D082A4
:1014B700D083C0E07401141200BFD0E0C083C082A3
:1014C700C0E0900DD31200B4D0E0D082D0830215D3
:1014D700D2E9B40279C0E07401141200C1D0E0C0AF
:1014E70083C082C0E0900D071200B4D0E0D082D054
:1014F70083C0E07401141200C1D0E0C083C082C071
:10150700E0900DA01200B4D0E0D082D083EA54025C
:10151700B40238C0E07401141200BFD0E0C083C029
:1015270082C0E0900D071200B4D0E0D082D083C013
:10153700E07401141200BFD0E0C083C082C0E09005
:101547000DB11200B4D0E0D082D0830215D2E9B435
:101557000379C0E07401141200C1D0E0C083C082D7
:10156700C0E0900D071200B4D0E0D082D083C0E075
:101577007401141200C1D0E0C083C082C0E0900D96
:10158700A01200B4D0E0D082D083EA5402B402386B
:10159700C0E07401141200BFD0E0C083C082C0E075
:1015A700900D071200B4D0E0D082D083C0E0740160
:1015B700141200BFD0E0C083C082C0E0900DC212F9
:1015C70000B4D0E0D082D0830215D220A514C00287
:1015D7007A0A120039D00220A50830A5FD30A6FDF1
:1015E70080030217E4191210C0E9B40079C0E0744F
:1015F70001141200C1D0E0C083C082C0E0900D0783
:101607001200B4D0E0D082D083C0E074011412007D
:10161700C1D0E0C083C082C0E0900D7E1200B4D07C
:10162700E0D082D083EA5402B40238C0E0740114D7
:101637001200BFD0E0C083C082C0E0900D07120047
:10164700B4D0E0D082D083C0E07401141200BFD0C0
:10165700E0C083C082C0E0900DD31200B4D0E0D0C8
:1016670082D0830217E4E9B40179C0E0740114124F
:1016770000C1D0E0C083C082C0E0900D071200B463
:10168700D0E0D082D083C0E07401141200C1D0E052
:10169700C083C082C0E0900D8F1200B4D0E0D0822A
:1016A700D083EA5402B40238C0E07401141200BFB8
:1016B700D0E0C083C082C0E0900D071200B4D0E034
:1016C700D082D083C0E07401141200BFD0E0C08381
:1016D700C082C0E0900DD31200B4D0E0D082D08396
:1016E7000217E4E9B40279C0E07401141200C1D012
:1016F700E0C083C082C0E0900D071200B4D0E0D0F4
:1017070082D083C0E07401141200C1D0E0C083C04E
:1017170082C0E0900DA01200B4D0E0D082D083EA5E
:101727005402B40238C0E07401141200BFD0E0C004
:1017370083C082C0E0900D071200B4D0E0D082D001
:1017470083C0E07401141200BFD0E0C083C082C020
:10175700E0900DB11200B4D0E0D082D0830217E43C
:10176700E9B40379C0E07401141200C1D0E0C0836A
:10177700C082C0E0900D071200B4D0E0D082D083C1
:10178700C0E07401141200C1D0E0C083C082C0E081
:10179700900DA01200B4D0E0D082D083EA5402B4F6
:1017A7000238C0E07401141200BFD0E0C083C082C9
:1017B700C0E0900D071200B4D0E0D082D083C0E023
:1017C7007401141200BFD0E0C083C082C0E0900D46
:1017D700C21200B4D0E0D082D0830217E4E8B4018B
:1017E700057800021A2820A711C0027A32120039A0
:1017F700D00220A70530A7FD8003021A22E9B40012
:10180700061200ED02182CE9B40106121A3B021861
:101817002CE9B40206121A4102182CE9B403061285
:101827001A4702182C7900E9B40079C0E074011452
:101837001200C1D0E0C083C082C0E0900D07120043
:10184700B4D0E0D082D083C0E07401141200C1D0BC
:10185700E0C083C082C0E0900D7E1200B4D0E0D01B
:1018670082D083EA5402B40238C0E0740114120033
:10187700BFD0E0C083C082C0E0900D071200B4D093
:10188700E0D082D083C0E07401141200BFD0E0C062
:1018970083C082C0E0900DD31200B4D0E0D082D0D4
:1018A70083021A22E9B40179C0E07401141200C15D
:1018B700D0E0C083C082C0E0900D071200B4D0E032
:1018C700D082D083C0E07401141200C1D0E0C0837D
:1018D700C082C0E0900D8F1200B4D0E0D082D083D8
:1018E700EA5402B40238C0E07401141200BFD0E019
:1018F700C083C082C0E0900D071200B4D0E0D08250
:10190700D083C0E07401141200BFD0E0C083C0824E
:10191700C0E0900DD31200B4D0E0D082D083021A79
:1019270022E9B40279C0E07401141200C1D0E0C00A
:1019370083C082C0E0900D071200B4D0E0D082D0FF
:1019470083C0E07401141200C1D0E0C083C082C01C
:10195700E0900DA01200B4D0E0D082D083EA540208
:10196700B40238C0E07401141200BFD0E0C083C0D5
:1019770082C0E0900D071200B4D0E0D082D083C0BF
:10198700E07401141200BFD0E0C083C082C0E090B1
:101997000DB11200B4D0E0D082D083021A22E9B48C
:1019A7000379C0E07401141200C1D0E0C083C08283
:1019B700C0E0900D071200B4D0E0D082D083C0E021
:1019C7007401141200C1D0E0C083C082C0E0900D42
:1019D700A01200B4D0E0D082D083EA5402B4023817
:1019E700C0E07401141200BFD0E0C083C082C0E021
:1019F700900D071200B4D0E0D082D083C0E074010C
:101A0700141200BFD0E0C083C082C0E0900DC212A4
:101A170000B4D0E0D082D083021A221200EC021365
:101A2700C0D0E0D007D006D005D004D003D002D074
:101A370001D0002275300178012275300278012229
:101A4700753003780122C0E0E530B40116C0E0E547
:101A570033F531E53AF539E536F532E53EF53DD072
:101A6700E08032B40216C0E0E534F531E53BF539E4
:101A7700E537F532E53FF53DD0E08019B40316C0F0
:101A8700E0E535F531E53CF539E538F532E540F582
:101A97003DD0E08000D0E0C000C001C002C003C05C
:101AA70004C005C006C007C0E0780079007A00745A
:101AB700007401B401010A7401B401010A7401B48C
:101AC70001010AE9B40079C0E07401141200C1D021
:101AD700E0C083C082C0E0900D071200B4D0E0D010
:101AE70082D083C0E07401141200C1D0E0C083C06B
:101AF70082C0E0900DE41200B4D0E0D082D083EA37
:101B07005402B40238C0E07401141200BFD0E0C020
:101B170083C082C0E0900D071200B4D0E0D082D01D
:101B270083C0E07401141200BFD0E0C083C082C03C
:101B3700E0900E391200B4D0E0D082D083021CBEF0
:101B4700E9B40179C0E07401141200C1D0E0C08388
:101B5700C082C0E0900D071200B4D0E0D082D083DD
:101B6700C0E07401141200C1D0E0C083C082C0E09D
:101B7700900DF51200B4D0E0D082D083EA5402B4BD
:101B87000238C0E07401141200BFD0E0C083C082E5
:101B9700C0E0900D071200B4D0E0D082D083C0E03F
:101BA7007401141200BFD0E0C083C082C0E0900E61
:101BB700391200B4D0E0D082D083021CBEE9B4024F
:101BC70079C0E07401141200C1D0E0C083C082C0A4
:101BD700E0900D071200B4D0E0D082D083C0E0744B
:101BE70001141200C1D0E0C083C082C0E0900E068D
:101BF7001200B4D0E0D082D083EA5402B40238C0D5
:101C0700E07401141200BFD0E0C083C082C0E0902E
:101C17000D071200B4D0E0D082D083C0E074011465
:101C27001200BFD0E0C083C082C0E0900E17120040
:101C3700B4D0E0D082D083021CBEE9B40379C0E0FF
:101C47007401141200C1D0E0C083C082C0E0900DBF
:101C5700071200B4D0E0D082D083C0E07401141220
:101C670000C1D0E0C083C082C0E0900E061200B46D
:101C7700D0E0D082D083EA5402B40238C0E07401C5
:101C8700141200BFD0E0C083C082C0E0900D0712DD
:101C970000B4D0E0D082D083C0E07401141200BF3A
:101CA700D0E0C083C082C0E0900E281200B4D0E01C
:101CB700D082D083021CBE20A614C0027A0A12006A
:101CC70039D00220A60830A6FD30A5FD8003021EEC
:101CD700D0091210C0E9B40079C0E07401141200F1
:101CE700C1D0E0C083C082C0E0900D071200B4D01D
:101CF700E0D082D083C0E07401141200C1D0E0C0EC
:101D070083C082C0E0900DE41200B4D0E0D082D04E
:101D170083EA5402B40238C0E07401141200BFD041
:101D2700E0C083C082C0E0900D071200B4D0E0D0BD
:101D370082D083C0E07401141200BFD0E0C083C01A
:101D470082C0E0900E391200B4D0E0D082D0830276
:101D57001ED0E9B40179C0E07401141200C1D0E0CB
:101D6700C083C082C0E0900D071200B4D0E0D082DB
:101D7700D083C0E07401141200C1D0E0C083C082D8
:101D8700C0E0900DF51200B4D0E0D082D083EA54C1
:101D970002B40238C0E07401141200BFD0E0C0835F
:101DA700C082C0E0900D071200B4D0E0D082D0838B
:101DB700C0E07401141200BFD0E0C083C082C0E04D
:101DC700900E391200B4D0E0D082D083021ED0E941
:101DD700B40279C0E07401141200C1D0E0C083C01E
:101DE70082C0E0900D071200B4D0E0D082D083C04B
:101DF700E07401141200C1D0E0C083C082C0E0903B
:101E07000E061200B4D0E0D082D083EA5402B402A6
:101E170038C0E07401141200BFD0E0C083C082C094
:101E2700E0900D071200B4D0E0D082D083C0E074F8
:101E370001141200BFD0E0C083C082C0E0900E172B
:101E47001200B4D0E0D082D083021ED0E9B4037967
:101E5700C0E07401141200C1D0E0C083C082C0E0AA
:101E6700900D071200B4D0E0D082D083C0E0740197
:101E7700141200C1D0E0C083C082C0E0900E0612E9
:101E870000B4D0E0D082D083EA5402B40238C0E074
:101E97007401141200BFD0E0C083C082C0E0900D6F
:101EA700071200B4D0E0D082D083C0E074011412CE
:101EB70000BFD0E0C083C082C0E0900E281200B4FB
:101EC700D0E0D082D083021ED020A514C0027A0AA7
:101ED700120039D00220A50830A5FD30A6FD8003E9
:101EE7000220E2191210C0E9B40079C0E0740114AD
:101EF7001200C1D0E0C083C082C0E0900D0712007D
:101F0700B4D0E0D082D083C0E07401141200C1D0F5
:101F1700E0C083C082C0E0900DE41200B4D0E0D0EE
:101F270082D083EA5402B40238C0E074011412006C
:101F3700BFD0E0C083C082C0E0900D071200B4D0CC
:101F4700E0D082D083C0E07401141200BFD0E0C09B
:101F570083C082C0E0900E391200B4D0E0D082D0A6
:101F6700830220E2E9B40179C0E07401141200C1D0
:101F7700D0E0C083C082C0E0900D071200B4D0E06B
:101F8700D082D083C0E07401141200C1D0E0C083B6
:101F9700C082C0E0900DF51200B4D0E0D082D083AB
:101FA700EA5402B40238C0E07401141200BFD0E052
:101FB700C083C082C0E0900D071200B4D0E0D08289
:101FC700D083C0E07401141200BFD0E0C083C08288
:101FD700C0E0900E391200B4D0E0D082D083022046
:101FE700E2E9B40279C0E07401141200C1D0E0C084
:101FF70083C082C0E0900D071200B4D0E0D082D039
:1020070083C0E07401141200C1D0E0C083C082C055
:10201700E0900E061200B4D0E0D082D083EA5402DA
:10202700B40238C0E07401141200BFD0E0C083C00E
:1020370082C0E0900D071200B4D0E0D082D083C0F8
:10204700E07401141200BFD0E0C083C082C0E090EA
:102057000E171200B4D0E0D082D0830220E2E9B498
:102067000379C0E07401141200C1D0E0C083C082BC
:10207700C0E0900D071200B4D0E0D082D083C0E05A
:102087007401141200C1D0E0C083C082C0E0900E7A
:10209700061200B4D0E0D082D083EA5402B40238EA
:1020A700C0E07401141200BFD0E0C083C082C0E05A
:1020B700900D071200B4D0E0D082D083C0E0740145
:1020C700141200BFD0E0C083C082C0E0900E281277
:1020D70000B4D0E0D082D0830220E2E8B4010578D2
:1020E7000002232620A711C0027A32120039D0023B
:1020F70020A70530A7FD8003022320E9B4000612BC
:1021070000ED02212AE9B401061200EC02212AE9B6
:10211700B4020612233C02212AE9B4030612251A47
:1021270002212A7900E9B40079C0E0740114120091
:10213700C1D0E0C083C082C0E0900D071200B4D0C8
:10214700E0D082D083C0E07401141200C1D0E0C097
:1021570083C082C0E0900DE41200B4D0E0D082D0FA
:1021670083EA5402B40238C0E07401141200BFD0ED
:10217700E0C083C082C0E0900D071200B4D0E0D069
:1021870082D083C0E07401141200BFD0E0C083C0C6
:1021970082C0E0900E391200B4D0E0D082D0830222
:1021A7002320E9B40179C0E07401141200C1D0E022
:1021B700C083C082C0E0900D071200B4D0E0D08287
:1021C700D083C0E07401141200C1D0E0C083C08284
:1021D700C0E0900DF51200B4D0E0D082D083EA546D
:1021E70002B40238C0E07401141200BFD0E0C0830B
:1021F700C082C0E0900D071200B4D0E0D082D08337
:10220700C0E07401141200BFD0E0C083C082C0E0F8
:10221700900E391200B4D0E0D082D083022320E997
:10222700B40279C0E07401141200C1D0E0C083C0C9
:1022370082C0E0900D071200B4D0E0D082D083C0F6
:10224700E07401141200C1D0E0C083C082C0E090E6
:102257000E061200B4D0E0D082D083EA5402B40252
:1022670038C0E07401141200BFD0E0C083C082C040
:10227700E0900D071200B4D0E0D082D083C0E074A4
:1022870001141200BFD0E0C083C082C0E0900E17D7
:102297001200B4D0E0D082D083022320E9B40379BE
:1022A700C0E07401141200C1D0E0C083C082C0E056
:1022B700900D071200B4D0E0D082D083C0E0740143
:1022C700141200C1D0E0C083C082C0E0900E061295
:1022D70000B4D0E0D082D083EA5402B40238C0E020
:1022E7007401141200BFD0E0C083C082C0E0900D1B
:1022F700071200B4D0E0D082D083C0E0740114127A
:1023070000BFD0E0C083C082C0E0900E281200B4A6
:10231700D0E0D082D0830223201200EC021CBED072
:10232700E0D007D006D005D004D003D002D001D02A
:10233700001226F822C000C0E0C0E07401141200A9
:10234700C1D0E0C083C082C0E0900D071200B4D0B6
:10235700E0D082D083C0E07401141200BFD0E0C087
:1023670083C082C0E0900D071200B4D0E0D082D0C5
:1023770083C0E07401141200C1D0E0C083C082C0E2
:10238700E0900E921200B4D0E0D082D083C0E07407
:1023970001141200BFD0E0C083C082C0E0900D07D7
:1023A7001200B4D0E0D082D0837800C0E074051466
:1023B7001200BFD0E0C083C082C0E0900EB412000C
:1023C700B4D0E0D082D08320A714C0027A321200A2
:1023D70039D00220A70830A7FDD0E0D0002220A4E2
:1023E70011C0027A32120039D00220A40530A4FDB0
:1023F700800302247B08E8B4020478007400B40068
:102407003BC0E07405141200BFD0E0C083C082C097
:10241700E0900EB41200B4D0E0D082D083C0E07454
:102427000C141200BFD0E0C083C082C0E0900EB889
:102437001200B4D0E0D082D08302247BC0E0740CB9
:10244700141200BFD0E0C083C082C0E0900EB61265
:1024570000B4D0E0D082D083C0E07405141200BF6E
:10246700D0E0C083C082C0E0900EB81200B4D0E0C4
:10247700D082D08320A620C0027A0A120039D00267
:1024870020A61430A6FD30A5FDE8B40005053202EC
:10249700249E053102249E20A520C0027A0A12003C
:1024A70039D00220A51430A5FD30A6FDE8B40005FB
:1024B70015320224C115310224C1853247754800FF
:1024C700754900754A00120129C0E0740114120011
:1024D700BFD0E0C000A8501200C6D000C000A84F6F
:1024E7001200C6D000853147754800754900754A06
:1024F70000120129C0E0740D141200BFD0E0C00023
:10250700A8501200C6D000C000A84F1200C6D000C5
:102517000223CEC000C0E0C0E07401141200C1D095
:10252700E0C083C082C0E0900D071200B4D0E0D0B5
:1025370082D083C0E07401141200BFD0E0C083C012
:1025470082C0E0900D071200B4D0E0D082D083C0E3
:10255700E07401141200C1D0E0C083C082C0E090D3
:102567000EA31200B4D0E0D082D083C0E07401146F
:102577001200BFD0E0C083C082C0E0900D071200F8
:10258700B4D0E0D082D0837800C0E0740514120084
:10259700BFD0E0C083C082C0E0900EB41200B4D0B8
:1025A700E0D082D08320A714C0027A32120039D03B
:1025B7000220A70830A7FDD0E0D0002220A411C038
:1025C700027A32120039D00220A40530A4FD80031C
:1025D70002265908E8B4020478007400B4003BC02E
:1025E700E07405141200BFD0E0C083C082C0E09041
:1025F7000EB41200B4D0E0D082D083C0E0740C14C3
:102607001200BFD0E0C083C082C0E0900EB81200B5
:10261700B4D0E0D082D083022659C0E0740C1412E3
:1026270000BFD0E0C083C082C0E0900EB61200B4F5
:10263700D0E0D082D083C0E07405141200BFD0E090
:10264700C083C082C0E0900EB81200B4D0E0D08240
:10265700D08320A620C0027A0A120039D00220A611
:102667001430A6FD30A5FDE8B40005053D02267C23
:10267700053902267C20A520C0027A0A120039D02B
:102687000220A51430A5FD30A6FDE8B40005153DD0
:1026970002269F153902269F853D477548007549D3
:1026A70000754A00120129C0E07401141200BFD05E
:1026B700E0C000A8501200C6D000C000A84F12000A
:1026C700C6D000853947754800754900754A00121C
:1026D7000129C0E0740D141200BFD0E0C000A8505B
:1026E7001200C6D000C000A84F1200C6D0000225B5
:1026F700ACC000A830C000C0E0C0E07401141200F4
:10270700C1D0E0C083C082C0E0900D071200B4D0F2
:10271700E0D082D083C0E07401141200BFD0E0C0C3
:1027270083C082C0E0900D071200B4D0E0D082D001
:1027370083C0E07401141200C1D0E0C083C082C01E
:10274700E0900E581200B4D0E0D082D083C0E0747D
:1027570001141200BFD0E0C083C082C0E0900E68B1
:102767001200B4D0E0D082D08320A768C0027A32AA
:10277700120039D00220A75C30A7FDE530B401175D
:10278700C0E0E531F533E539F53AE532F536E53DB3
:10279700F53ED0E00227D2B40217C0E0E531F534A8
:1027A700E539F53BE532F537E53DF53FD0E0022762
:1027B700B8B40317C0E0E531F535E539F53CE53246
:1027C700F538E53DF540D0E00227D2D0E0D00088CB
:1027D70030D00022E530B40116C0E0740D141200A9
:1027E700BFD0E0C0E0743112007ED0E0022828B4E8
:1027F7000216C0E0740D141200BFD0E0C0E07432BE
:1028070012007ED0E0022828B40316C0E0740D142D
:102817001200BFD0E0C0E0743312007ED0E002287F
:102827002820A618C0027A32120039D00220A60C3E
:1028370030A6FD04F530B404037530010227707526
:10284700817F120088120F58120C96C000C001C079
:1028570002C003C004C005C006C007C0E078007905
:10286700007A0074007401B401010A7401B4010113
:102877000A7401B401010AE9B40079C0E0740114D3
:102887001200C1D0E0C083C082C0E0900D071200E3
:10289700B4D0E0D082D083C0E07401141200C1D05C
:1028A700E0C083C082C0E0900D181200B4D0E0D021
:1028B70082D083EA5402B40238C0E07401141200D3
:1028C700BFD0E0C083C082C0E0900D071200B4D033
:1028D700E0D082D083C0E07401141200BFD0E0C002
:1028E70083C082C0E0900D6D1200B4D0E0D082D0DA
:1028F70083022A72E9B40179C0E07401141200C19D
:10290700D0E0C083C082C0E0900D071200B4D0E0D1
:10291700D082D083C0E07401141200C1D0E0C0831C
:10292700C082C0E0900D291200B4D0E0D082D083DD
:10293700EA5402B40238C0E07401141200BFD0E0B8
:10294700C083C082C0E0900D071200B4D0E0D082EF
:10295700D083C0E07401141200BFD0E0C083C082EE
:10296700C0E0900D6D1200B4D0E0D082D083022A6F
:1029770072E9B40279C0E07401141200C1D0E0C05A
:1029870083C082C0E0900D071200B4D0E0D082D09F
:1029970083C0E07401141200C1D0E0C083C082C0BC
:1029A700E0900D3A1200B4D0E0D082D083EA54020E
:1029B700B40238C0E07401141200BFD0E0C083C075
:1029C70082C0E0900D071200B4D0E0D082D083C05F
:1029D700E07401141200BFD0E0C083C082C0E09051
:1029E7000D4B1200B4D0E0D082D083022A72E9B432
:1029F7000379C0E07401141200C1D0E0C083C08223
:102A0700C0E0900D071200B4D0E0D082D083C0E0C0
:102A17007401141200C1D0E0C083C082C0E0900DE1
:102A27003A1200B4D0E0D082D083EA5402B402381C
:102A3700C0E07401141200BFD0E0C083C082C0E0C0
:102A4700900D071200B4D0E0D082D083C0E07401AB
:102A5700141200BFD0E0C083C082C0E0900D5C12AA
:102A670000B4D0E0D082D083022A7220A614C0021C
:102A77007A0A120039D00220A60830A6FD30A5FD3B
:102A87008003022C84091210C0E9B40079C0E074F5
:102A970001141200C1D0E0C083C082C0E0900D07CE
:102AA7001200B4D0E0D082D083C0E07401141200C9
:102AB700C1D0E0C083C082C0E0900D181200B4D02E
:102AC700E0D082D083EA5402B40238C0E074011423
:102AD7001200BFD0E0C083C082C0E0900D07120093
:102AE700B4D0E0D082D083C0E07401141200BFD00C
:102AF700E0C083C082C0E0900D6D1200B4D0E0D07A
:102B070082D083022C84E9B40179C0E074011412E5
:102B170000C1D0E0C083C082C0E0900D071200B4AE
:102B2700D0E0D082D083C0E07401141200C1D0E09D
:102B3700C083C082C0E0900D291200B4D0E0D082DB
:102B4700D083EA5402B40238C0E07401141200BF03
:102B5700D0E0C083C082C0E0900D071200B4D0E07F
:102B6700D082D083C0E07401141200BFD0E0C083CC
:102B7700C082C0E0900D6D1200B4D0E0D082D08347
:102B8700022C84E9B40279C0E07401141200C1D0A8
:102B9700E0C083C082C0E0900D071200B4D0E0D03F
:102BA70082D083C0E07401141200C1D0E0C083C09A
:102BB70082C0E0900D3A1200B4D0E0D082D083EA10
:102BC7005402B40238C0E07401141200BFD0E0C050
:102BD70083C082C0E0900D071200B4D0E0D082D04D
:102BE70083C0E07401141200BFD0E0C083C082C06C
:102BF700E0900D4B1200B4D0E0D082D083022C8439
:102C0700E9B40379C0E07401141200C1D0E0C083B5
:102C1700C082C0E0900D071200B4D0E0D082D0830C
:102C2700C0E07401141200C1D0E0C083C082C0E0CC
:102C3700900D3A1200B4D0E0D082D083EA5402B4A7
:102C47000238C0E07401141200BFD0E0C083C08214
:102C5700C0E0900D071200B4D0E0D082D083C0E06E
:102C67007401141200BFD0E0C083C082C0E0900D91
:102C77005C1200B4D0E0D082D083022C8420A5144B
:102C8700C0027A0A120039D00220A50830A5FD300B
:102C9700A6FD8003022E96191210C0E9B40079C070
:102CA700E07401141200C1D0E0C083C082C0E0907C
:102CB7000D071200B4D0E0D082D083C0E0740114B5
:102CC7001200C1D0E0C083C082C0E0900D1812008E
:102CD700B4D0E0D082D083EA5402B40238C0E074A2
:102CE70001141200BFD0E0C083C082C0E0900D077E
:102CF7001200B4D0E0D082D083C0E0740114120077
:102D0700BFD0E0C083C082C0E0900D6D1200B4D088
:102D1700E0D082D083022E96E9B40179C0E0740135
:102D2700141200C1D0E0C083C082C0E0900D07122A
:102D370000B4D0E0D082D083C0E07401141200C187
:102D4700D0E0C083C082C0E0900D291200B4D0E06B
:102D5700D082D083EA5402B40238C0E0740114125E
:102D670000BFD0E0C083C082C0E0900D071200B45E
:102D7700D0E0D082D083C0E07401141200BFD0E04D
:102D8700C083C082C0E0900D6D1200B4D0E0D08245
:102D9700D083022E96E9B40279C0E07401141200C0
:102DA700C1D0E0C083C082C0E0900D071200B4D04C
:102DB700E0D082D083C0E07401141200C1D0E0C01B
:102DC70083C082C0E0900D3A1200B4D0E0D082D028
:102DD70083EA5402B40238C0E07401141200BFD071
:102DE700E0C083C082C0E0900D071200B4D0E0D0ED
:102DF70082D083C0E07401141200BFD0E0C083C04A
:102E070082C0E0900D4B1200B4D0E0D082D0830294
:102E17002E96E9B40379C0E07401141200C1D0E022
:102E2700C083C082C0E0900D071200B4D0E0D0820A
:102E3700D083C0E07401141200C1D0E0C083C08207
:102E4700C0E0900D3A1200B4D0E0D082D083EA54AB
:102E570002B40238C0E07401141200BFD0E0C0838E
:102E6700C082C0E0900D071200B4D0E0D082D083BA
:102E7700C0E07401141200BFD0E0C083C082C0E07C
:102E8700900D5C1200B4D0E0D082D083022E96E879
:102E9700B4010578000230DA20A711C0027A321295
:102EA7000039D00220A70530A7FD80030230D4E9FE
:102EB700B40006123284022EDEE9B40106121A4D5E
:102EC700022EDEE9B402061211A0022EDEE9B403D7
:102ED700061230EC022EDE7900E9B40079C0E07406
:102EE70001141200C1D0E0C083C082C0E0900D077A
:102EF7001200B4D0E0D082D083C0E0740114120075
:102F0700C1D0E0C083C082C0E0900D181200B4D0D9
:102F1700E0D082D083EA5402B40238C0E0740114CE
:102F27001200BFD0E0C083C082C0E0900D0712003E
:102F3700B4D0E0D082D083C0E07401141200BFD0B7
:102F4700E0C083C082C0E0900D6D1200B4D0E0D025
:102F570082D0830230D4E9B40179C0E0740114123D
:102F670000C1D0E0C083C082C0E0900D071200B45A
:102F7700D0E0D082D083C0E07401141200C1D0E049
:102F8700C083C082C0E0900D291200B4D0E0D08287
:102F9700D083EA5402B40238C0E07401141200BFAF
:102FA700D0E0C083C082C0E0900D071200B4D0E02B
:102FB700D082D083C0E07401141200BFD0E0C08378
:102FC700C082C0E0900D6D1200B4D0E0D082D083F3
:102FD7000230D4E9B40279C0E07401141200C1D000
:102FE700E0C083C082C0E0900D071200B4D0E0D0EB
:102FF70082D083C0E07401141200C1D0E0C083C046
:1030070082C0E0900D3A1200B4D0E0D082D083EABB
:103017005402B40238C0E07401141200BFD0E0C0FB
:1030270083C082C0E0900D071200B4D0E0D082D0F8
:1030370083C0E07401141200BFD0E0C083C082C017
:10304700E0900D4B1200B4D0E0D082D0830230D490
:10305700E9B40379C0E07401141200C1D0E0C08361
:10306700C082C0E0900D071200B4D0E0D082D083B8
:10307700C0E07401141200C1D0E0C083C082C0E078
:10308700900D3A1200B4D0E0D082D083EA5402B453
:103097000238C0E07401141200BFD0E0C083C082C0
:1030A700C0E0900D071200B4D0E0D082D083C0E01A
:1030B7007401141200BFD0E0C083C082C0E0900D3D
:1030C7005C1200B4D0E0D082D0830230D412110C4D
:1030D700022A72D0E0D007D006D005D004D003D0A2
:1030E70002D001D000C0E07401141200C1D0E0C0CA
:1030F70083C082C0E0900D071200B4D0E0D082D028
:1031070083C0E07401141200BFD0E0C083C082C046
:10311700E0900D071200B4D0E0D082D083C0E074F5
:1031270001141200C1D0E0C083C082C0E0900F3606
:103137001200B4D0E0D082D083C0E0740114120032
:10314700BFD0E0C083C082C0E0900F471200B4D068
:10315700E0D082D083C0027AFA120039D002C002CE
:103167007AFA120039D002C0027AFA120039D00274
:1031770020A710C0027A32120039D00220A70430EB
:10318700A7FD22121163855A47855B48754900756B
:103197004A00120129C0E07401141200C1D0E0C036
:1031A70000A8511200C6D000C000A8501200C6D017
:1031B70000C0E0742E12007ED0E0C000A84F1200BD
:1031C700C6D000855C47855D48754900754A001281
:1031D7000129C0E07401141200BFD0E0C000A8515B
:1031E7001200C6D000C000A8501200C6D000C0E030
:1031F700742E12007ED0E0C000A84F1200C6D00087
:10320700855E47855F48754900754A00120129C0E8
:10321700E0740A141200C1D0E0C000A8511200C621
:10322700D000C000A8501200C6D000C0E0742E1213
:10323700007ED0E0C000A84F1200C6D000857D47B1
:10324700857E48754900754A00120129C0E0740A55
:10325700141200BFD0E0C000A8511200C6D000C0B1
:1032670000A8501200C6D000C0E0742E12007ED015
:10327700E0C000A84F1200C6D000023177C0E0E5D9
:1032870030B40116C0E0E533F541E53AF542E536DD
:10329700F543E53EF544D0E08032B40216C0E0E5E0
:1032A70034F541E53BF542E537F543E53FF544D0D5
:1032B700E08019B40316C0E0E535F541E53CF54279
:1032C700E538F543E540F544D0E08000C0E07401FF
:1032D700141200C1D0E0C083C082C0E0900D071275
:1032E70000B4D0E0D082D083C0E07401141200BFD4
:1032F700D0E0C083C082C0E0900D071200B4D0E0D8
:10330700D082D083755400755500755600755700E7
:10331700754501123521D21AD21BC202D21C1238AE
:103327000A7900E9B40079C0E07401141200C1D031
:10333700E0C083C082C0E0900D071200B4D0E0D097
:1033470082D083C0E07401141200C1D0E0C083C0F2
:1033570082C0E0900D181200B4D0E0D082D083EA8A
:103367005402B40238C0E07401141200BFD0E0C0A8
:1033770083C082C0E0900D071200B4D0E0D082D0A5
:1033870083C0E07401141200BFD0E0C083C082C0C4
:10339700E0900D6D1200B4D0E0D082D08302351ECC
:1033A700E9B40179C0E07401141200C1D0E0C08310
:1033B700C082C0E0900D071200B4D0E0D082D08365
:1033C700C0E07401141200C1D0E0C083C082C0E025
:1033D700900D291200B4D0E0D082D083EA5402B411
:1033E7000238C0E07401141200BFD0E0C083C0826D
:1033F700C0E0900D071200B4D0E0D082D083C0E0C7
:103407007401141200BFD0E0C083C082C0E0900DE9
:103417006D1200B4D0E0D082D08302351EE9B40229
:1034270079C0E07401141200C1D0E0C083C082C02B
:10343700E0900D071200B4D0E0D082D083C0E074D2
:1034470001141200C1D0E0C083C082C0E0900D3AE1
:103457001200B4D0E0D082D083EA5402B40238C05C
:10346700E07401141200BFD0E0C083C082C0E090B6
:103477000D071200B4D0E0D082D083C0E0740114ED
:103487001200BFD0E0C083C082C0E0900D4B120095
:10349700B4D0E0D082D08302351EE9B40379C0E00E
:1034A7007401141200C1D0E0C083C082C0E0900D47
:1034B700071200B4D0E0D082D083C0E074011412A8
:1034C70000C1D0E0C083C082C0E0900D3A1200B4C2
:1034D700D0E0D082D083EA5402B40238C0E074014D
:1034E700141200BFD0E0C083C082C0E0900D071265
:1034F70000B4D0E0D082D083C0E07401141200BFC2
:10350700D0E0C083C082C0E0900D5C1200B4D0E070
:10351700D082D08302351ED0E02220080302352A4C
:103527000235E2E545B401221200F0C0E074071449
:103537001200C1D0E0C083C082C0E0900EDE12004E
:10354700B4D0E0D082D0830236D5B402221200F084
:10355700C0E0740D141200C1D0E0C083C082C0E087
:10356700900EE91200B4D0E0D082D0830236D5B4F1
:1035770003221200F0C0E07407141200C1D0E0C0AB
:1035870083C082C0E0900EEE1200B4D0E0D082D0AB
:10359700830236D5B404221200F0C0E0740B141273
:1035A70000C1D0E0C083C082C0E0900EF91200B421
:1035B700D0E0D082D0830236D51200F0C0E0740A82
:1035C700141200C1D0E0C083C082C0E0900F001287
:1035D70000B4D0E0D082D0830236D51200F0C0E02C
:1035E700740C141200C1D0E0C083C082C0E0900FF9
:1035F700081200B4D0E0D082D083856447754800B4
:10360700754900754A00120129C0E07407141200B9
:10361700C1D0E0C000A8501200C6D000C000A84F1B
:103627001200C6D000E545B4011FC0E0740C1412A7
:1036370000C1D0E0C083C082C0E0900EC31200B4C6
:10364700D0E0D082D0830236D5B4021FC0E0740D1B
:10365700141200C1D0E0C083C082C0E0900EC31234
:1036670000B4D0E0D082D0830236D5B4031FC0E0C7
:10367700740E141200C1D0E0C083C082C0E0900E67
:10368700C31200B4D0E0D082D0830236D5B4041F71
:10369700C0E0740F141200C1D0E0C083C082C0E044
:1036A700900EC31200B4D0E0D082D0830236D5C0CA
:1036B700E07410141200C1D0E0C083C082C0E09053
:1036C7000EC31200B4D0E0D082D0830236D522C018
:1036D700E07401141200BFD0E0C000A8551200C664
:1036E700D000C000A8541200C6D000C0E0740D146A
:1036F7001200BFD0E0C000A8571200C6D000C0001B
:10370700A8561200C6D000228562478563487549CE
:1037170000754A00120129C0E07401141200C1D0DB
:10372700E0C000A8501200C6D000C000A84F120089
:10373700C6D0002212374212376922E55575F00AC2
:10374700A4FFE554C4540F2F75F00AA4FFE55454A1
:103757000F2F9432700BE562943C5005D202437FE1
:10376700402222C0E07401141200C1D0E0C083C01F
:1037770082C0E0900D071200B4D0E0D082D083C0A1
:10378700E07401141200C1D0E0C083C082C0E09091
:103797000F0E1200B4D0E0D082D083C0E0740114C1
:1037A7001200BFD0E0C083C082C0E0900D071200B6
:1037B700B4D0E0D082D083C0E07401141200BFD02F
:1037C700E0C083C082C0E0900F1D1200B4D0E0D0EB
:1037D70082D08375640AD214754500120C82C00228
:1037E7007AFA120039D002C0027AFA120039D002EE
:1037F700C0027AFA120039D002C0027AFA120039EE
:10380700D0022212373B20020302381602376A120F
:1038170036D612370F30090D123521C209300E0581
:10382700C20E02376AE545208212C0027A321200C0
:1038370039D0022082063082FD02376AB4012A306D
:103847001A08E543F564D214C21AE562B54302804B
:1038570005500302380AC20305457556007557001F
:10386700123521120C5E02380AB4022EE55775F0A4
:103877000AA4FFE556C4540F2F75F00AA4FFE556B6
:10388700540F2FB54111C20475450375560075577E
:1038970000123521120C5E02380AB4032E301B08C1
:1038A700E544F564D214C21BE562B54402800550B5
:1038B7000302380AC205754504755600755700128C
:1038C7003521120C5E02380A02380AB4042EE55775
:1038D70075F00AA4FFE556C4540F2F75F00AA4FF2C
:1038E700E556540F2FB5422CC2067545057556008F
:1038F700755700123521120C6A02380A75640AD20C
:1039070014E562B43C028005400302380A120C76C3
:073917007545002202380A89
:00000001FF
