:0300000002052CCA
:0100030032CA
:01000B0032C2
:0100130032BA
:01001B0032B2
:0100230032AA
:03002B000203606D
:10002E00C00078B10000D8FCD00022C000C0017919
:10003E002D78A6D8FED9FADAF6D001D00022D293C6
:10004E0012002EC29322A2E792B5A2E692B4A2E5C6
:10005E0092B3A2E492B212004C12002EA2E392B519
:10006E00A2E292B4A2E192B3A2E092B212004C22AA
:10007E00D291020054C291020054C293C2927433C0
:10008E0012008374331200837432120083742812A8
:10009E000083740C1200837401120083C0027A0272
:1000AE00120039D00222E493600612007EA380F67D
:1000BE002244404480020083C0E0E8C4540F443020
:0E00CE0012007EE8540F443012007ED0E02273
:1000DC00C0E0C0D0C000C001C002E4F538F539F56D
:1000EC003AF53BF53C7A20E533A2E779047830E623
:1000FC0033F608D9FA79057838E636D4F608D9F902
:10010C00DAE5D002D001D000D0D0D0E022C0E0C0DF
:10011C00D0C000C001C002E4F538F539F53AF53B22
:10012C00F53C7A20E533A2E779047830E633F6081B
:10013C00D9FA79057838C0D0E6243320E70224D0E8
:10014C0020E30224FDD0D033F608D9EADAD6D00267
:10015C00D001D000D0D0D0E022C0E0C0D0C000C0D0
:10016C0001C0027A207905C3783CE613C0D030E791
:10017C000224D030E30224FDF618D0D0D9EC790457
:10018C007833E613F618D9FADADBD002D001D000B6
:10019C00D0D0D0E022C0E0C0D0E5302534F530E539
:1001AC00313535F531E5323536F532E5333537F560
:1001BC0033D0D0D0E022C0E0C0D0C3E5309534F5C8
:1001CC0030E5319535F531E5329536F532E5339537
:1001DC0037F533D0D0D0E022C0E0C0D0C3E53095A5
:1001EC0034E5319535E5329536E53395379200D0C7
:1001FC00D0D0E022C0E0C0D0C3E5349530E53595D1
:10020C0031E5369532E53795339200D0D0D0E022E7
:10021C00C0E0C0D0C200C3E53495307014E535950C
:10022C0031700EE53695327008E53795337002D291
:10023C0000D0D0D0E02212021C20000302020022C7
:10024C0012021C2000030201E422C0E0C0F0C0D066
:10025C00C000C001C002C003E5308534F0A4F8A989
:10026C00F0E5318534F0A429F9E435F0FAE5308570
:10027C0035F0A429F9E5F03AFAE433FBE53285349C
:10028C00F0A42AFAE5F03BFBE5318535F0A42AFA17
:10029C00E5F03BFBE5308536F0A42AFAE5F03BFBB4
:1002AC00E5338534F0A42BFBE5328535F0A42BFB2C
:1002BC00E5318536F0A42BFBE5308537F0A42BFB1C
:1002CC008B338A3289318830D003D002D001D000F0
:1002DC00D0D0D0F0D0E022C0E0C0D0C000C001C06F
:1002EC0002C003C0047C20E4F8F9FAFBC3E5303308
:1002FC00F530E53133F531E53233F532E53333F5AD
:10030C0033E833F8E933F9EA33FAEB33FBC3E89516
:10031C0034E99535EA9536EB95374013E89534F882
:10032C00E99535F9EA9536FAEB9537FB433001DC64
:10033C00BBD004D003D002D001D000D0D0D0E0226A
:10034C0075C80075CDA975CC9A75CBA975CA9AD20A
:10035C00ADD2CA22C2CFB2B6C0E0C0D0D0D0D0E0AD
:10036C0032C0E0E8C4540F44301204A6E8540F44E1
:10037C00301204A6D0E022C0E07401141200BFD0E9
:10038C00E0C000A85D1200C6D000E55D2401C0E00D
:10039C007401141200BFD0E0C000F81200C6D000E7
:1003AC00B404047401F55DC0E07408141200BFD0ED
:1003BC00E0E55DB40109C0E0744312007ED0E0B406
:1003CC000209C0E0744612007ED0E0B40309C0E01C
:1003DC00744B12007ED0E0020578C0E07407141252
:1003EC0000BFD0E0C000A83C1200C6D000C000A8DE
:1003FC003B1200C6D000C000A83A1200C6D000C004
:10040C0000A8391200C6D000C000A8381200C6D00F
:10041C000022853D30853E317532007533007534D0
:10042C009A7535017536007537001202567534FF12
:10043C007535037536007537001202E37534117586
:10044C0035017536007537001201C21200DC22200E
:10045C000D0A0054656D70657261747572653A0DA4
:10046C000A0054656D70657261747572653A00129C
:10047C00041EC000A83812036DD00090045B120457
:10048C00AE2279DE78A6D8FED9FA438780759852C9
:10049C00759B00759AF4759B1E223099FDC299F5D7
:1004AC009922E49360061204A6A380F622D2A2C27B
:1004BC00A32279007A08E833F892A1D2A3A2A2E988
:1004CC0033F9C2A3DAF022C2A078011204BE7880FC
:1004DC001204BEE95403F53E78551204BE893DD290
:1004EC00A012050712047BC0E07405141200BFD0E3
:1004FC00E0C000A8381200C6D00022C0027AFA125E
:10050C000039D002C0027AFA120039D002C0027A45
:10051C00FA120039D002C0027AFA120039D0022243
:10052C0075817FD2AF12008812048E1204B91203A7
:10053C004C75E60075E700755D01C287C286C28501
:10054C00C284C283C282C281C280D2A7D2C5D2C4A5
:10055C00C0E07401141200C1D0E0C083C082C0E0BE
:10056C0090046E1200B4D0E0D082D083C0E074014D
:10057C00141200BFD0E0C0E0742112007ED0E0C0A5
:10058C00E07401141200BFD0E0C0E0741F12007EB2
:07059C00D0E01204D380D56A
:00000001FF
