:03000000020542B4
:0100030032CA
:01000B0032C2
:0100130032BA
:01001B0032B2
:0100230032AA
:03002B000203933A
:10002E00C0E0E8C4540F44301204A4E8540F443026
:10003E001204A4D0E022C00078B10000D8FCD00099
:10004E0022C000C001792D78A6D8FED9FADAF6D0F2
:10005E0001D00022D293120044C29322A2E792B59D
:10006E00A2E692B4A2E592B3A2E492B21200621298
:10007E000044A2E392B5A2E292B4A2E192B3A2E04E
:10008E0092B212006222D29102006AC29102006AFA
:10009E00C293C2927433120099743312009974325F
:1000AE001200997428120099740C1200997401129E
:1000BE000099C0027A0212004FD00222E493600629
:1000CE00120094A380F62244404480020099C0E0BE
:1000DE00E8C4540F4430120094E8540F4430120018
:0400EE0094D0E022A8
:1000F200C0E0C0D0C000C001C002E4F538F539F557
:100102003AF53BF53C7A20E533A2E779047830E60C
:1001120033F608D9FA79057838E636D4F608D9F9EB
:10012200DAE5D002D001D000D0D0D0E022C0E0C0C9
:10013200D0C000C001C002E4F538F539F53AF53B0C
:10014200F53C7A20E533A2E779047830E633F60805
:10015200D9FA79057838C0D0E6243320E70224D0D2
:1001620020E30224FDD0D033F608D9EADAD6D00251
:10017200D001D000D0D0D0E022C0E0C0D0C000C0BA
:1001820001C0027A207905C3783CE613C0D030E77B
:100192000224D030E30224FDF618D0D0D9EC790441
:1001A2007833E613F618D9FADADBD002D001D000A0
:1001B200D0D0D0E022C0E0C0D0E5302534F530E523
:1001C200313535F531E5323536F532E5333537F54A
:1001D20033D0D0D0E022C0E0C0D0C3E5309534F5B2
:1001E20030E5319535F531E5329536F532E5339521
:1001F20037F533D0D0D0E022C0E0C0D0C3E530958F
:1002020034E5319535E5329536E53395379200D0B0
:10021200D0D0E022C0E0C0D0C3E5349530E53595BA
:1002220031E5369532E53795339200D0D0D0E022D1
:10023200C0E0C0D0C200C3E53495307014E53595F6
:1002420031700EE53695327008E53795337002D27B
:1002520000D0D0D0E0221202322000030202162285
:100262001202322000030201FA22C0E0C0F0C0D024
:10027200C000C001C002C003E5308534F0A4F8A973
:10028200F0E5318534F0A429F9E435F0FAE530855A
:1002920035F0A429F9E5F03AFAE433FBE532853486
:1002A200F0A42AFAE5F03BFBE5318535F0A42AFA01
:1002B200E5F03BFBE5308536F0A42AFAE5F03BFB9E
:1002C200E5338534F0A42BFBE5328535F0A42BFB16
:1002D200E5318536F0A42BFBE5308537F0A42BFB06
:1002E2008B338A3289318830D003D002D001D000DA
:1002F200D0D0D0F0D0E022C0E0C0D0C000C001C059
:1003020002C003C0047C20E4F8F9FAFBC3E53033F1
:10031200F530E53133F531E53233F532E53333F596
:1003220033E833F8E933F9EA33FAEB33FBC3E89500
:1003320034E99535EA9536EB95374013E89534F86C
:10034200E99535F9EA9536FAEB9537FB433001DC4E
:10035200BBD004D003D002D001D000D0D0D0E02254
:10036200C0E07405141200D5D0E0C0E07421120080
:1003720094D0E080EBC0E0C0D075C80075CDA975FF
:10038200CC9A75CBA975CA9AD2ADD2CAD0D0D0E0D8
:1003920022C2CFC0E0C0D0C082C0831203B3D083D8
:1003A200D082D0D0D0E032C0F9A4B0999282F88045
:1003B200909003A9E538540F93F55EE538C4540FC5
:1003C20093F55F7560FFD2A4D2C5D2A6E55DB400F5
:1003D2000BE55E1203FFC2A4055D8020B4010BE5AC
:1003E2005F1203FFC2C5055D8012B4020CE5601204
:1003F20003FFC2A6755D008003755D0022A2E09234
:1004020087A2E19286A2E29285A2E39284A2E4927A
:1004120083A2E59282A2E6928122853D30853E3119
:1004220075320075330075349A753501753600756D
:10043200370012026C7534FF753503753600753757
:10044200001202F9753411753501753600753700E1
:100452001201D81200F222200D0A0054656D706557
:100462007261747572653A0D0A0054656D70657239
:1004720061747572653A0012041CC000A83812003B
:100482002ED0009004591204AC2279DE78A6D8FE50
:10049200D9FA438780759852759B00759AF4759BBB
:1004A2001E223099FDC299F59922E4936006120446
:1004B200A4A380F622D2A2C2A32279007A08E8334A
:1004C200F892A1D2A3A2A2E933F9C2A3DAF022C21E
:1004D200A078011204BC78801204BCE95403F53EF2
:1004E20078551204BC893DD2A0120505120479C0C8
:1004F200E07405141200D5D0E0C000A8381200DC68
:10050200D00022C0027AFA12004FD002C0027AFA58
:1005120012004FD002C0027AFA12004FD002C0027B
:100522007AFA12004FD00222758E01C2A4C2C5C24D
:10053200A6D287D286D285D284D283D282D2812297
:1005420075817F12009E12048C1204B71203771277
:10055200052A75E60075E70075BE0075BF0075CE09
:100562000075CF00758E01755D00C0E07401141234
:1005720000D7D0E0C083C082C0E090046C1200CAF1
:10058200D0E0D082D083C0E07408141200D5D0E04D
:10059200C0E07443120094D0E0D2AF1204D180FBC9
:00000001FF
