:03000000020540B6
:0100030032CA
:03000B00020416D6
:0100130032BA
:01001B0032B2
:0100230032AA
:03002B0002038647
:10002E00C0E0C0D0C000C001C002E4F53BF53CF515
:10003E003DF53EF53F7A20E536A2E779047833E6C2
:10004E0033F608D9FA7905783BE636D4F608D9F9AD
:10005E00DAE5D002D001D000D0D0D0E022C0E0C08E
:10006E00D0C000C001C002E4F53BF53CF53DF53EC5
:10007E00F53F7A20E536A2E779047833E633F608C1
:10008E00D9FA7905783BC0D0E6243320E70224D094
:10009E0020E30224FDD0D033F608D9EADAD6D00216
:1000AE00D001D000D0D0D0E022C0E0C0D0C000C07F
:1000BE0001C0027A207905C3783FE613C0D030E73D
:1000CE000224D030E30224FDF618D0D0D9EC790406
:1000DE007836E613F618D9FADADBD002D001D00062
:1000EE00D0D0D0E022C0E0C0D0E5332537F533E5DF
:1000FE00343538F534E5353539F535E536353AF5F7
:10010E0036D0D0D0E022C0E0C0D0C3E5339537F56D
:10011E0033E5349538F534E5359539F535E53695CD
:10012E003AF536D0D0D0E022C0E0C0D0C3E533954A
:10013E0037E5349538E5359539E536953A9201D05F
:10014E00D0D0E022C0E0C0D0C3E5379533E5389576
:10015E0034E5399535E53A95369201D0D0D0E02286
:10016E00C0E0C0D0C201C3E53795337014E53895B1
:10017E0034700EE53995357008E53A95367002D231
:10018E0001D0D0D0E02212016E20010302015222D2
:10019E0012016E20010302013622C0E0C0F0C0D071
:1001AE00C000C001C002C003E5338537F0A4F8A932
:1001BE00F0E5348537F0A429F9E435F0FAE5338516
:1001CE0038F0A429F9E5F03AFAE433FBE535853742
:1001DE00F0A42AFAE5F03BFBE5348538F0A42AFAC0
:1001EE00E5F03BFBE5338539F0A42AFAE5F03BFB5D
:1001FE00E5368537F0A42BFBE5358538F0A42BFBCF
:10020E00E5348539F0A42BFBE533853AF0A42BFBBE
:10021E008B368A3589348833D003D002D001D00092
:10022E00D0D0D0F0D0E022C0E0C0D0C000C001C01D
:10023E0002C003C0047C20E4F8F9FAFBC3E53333B3
:10024E00F533E53433F534E53533F535E53633F549
:10025E0036E833F8E933F9EA33FAEB33FBC3E895C2
:10026E0037E99538EA9539EB953A4013E89537F822
:10027E00E99538F9EA9539FAEB953AFB433301DC07
:10028E00BBD004D003D002D001D000D0D0D0E02219
:10029E00C00078B10000D8FCD00022C000C00179A7
:1002AE002D78A6D8FED9FADAF6D001D00022D29354
:1002BE0012029EC29322A2E792B5A2E692B4A2E5E2
:1002CE0092B3A2E492B21202BC12029EA2E392B5C3
:1002DE00A2E292B4A2E192B3A2E092B21202BC22C6
:1002EE00D2910202C4C2910202C4C293C29274336A
:1002FE001202F374331202F374321202F3742812E0
:10030E0002F3740C1202F374011202F3C0027A02A9
:10031E001202A9D00222E49360061202EEA380F626
:10032E0022444044800202F3C0E0E8C4540F44303B
:0E033E001202EEE8540F44301202EED0E0221C
:10034C00E58954F04401F589758C53758A3475F43C
:10035C005375F2347530FAC200D2A9D28C22C0E0A7
:10036C00C0D075C80075CDA975CC9A75CBA975CAC6
:10037C009AD2ADD2CAD0D0D0E022C2CFC0E0C0D089
:10038C00C082C0831203A6D083D082D0D0D0E032FA
:10039C00C0F9A4B0999282F8809090039CE53154F6
:1003AC000F93F550E531C4540F93F551E53293F5A5
:1003BC0052D2A4D2C5D2A6E54FB4000BE55012031D
:1003CC00F4C2A4054F8020B4010BE5511203F4C212
:1003DC00C5054F8012B4020CE5521203F4C2A67587
:1003EC004F008003754F0022A2E09287A2E1928613
:1003FC00A2E29285A2E39284A2E49283A2E5928285
:10040C00A2E6928122D0D0D0E032C0E0C0D0D54E4E
:10041C0003754E05D530EE7530FAB2B6C2A0780130
:10042C001204DB78801204DBE95403F532785512A0
:10043C0004DB8931D2A075360075350085323485E0
:10044C0031337537C9753809753900753A001201A1
:10045C00A8753764753800753900753A0012023585
:10046C00753782753800753900753A001200F375CE
:10047C00379C753809753900753A001200F37537D9
:10048C0064753800753900753A0012023512002E69
:10049C00853C32853B31C0E074011412032FD0E04F
:1004AC00C000A83C120336D000C000A83B12033693
:1004BC00D000C0E074051412032FD0E0C0E07443E8
:1004CC001202EED0E0D0D0D0E032D2A2C2A322C031
:1004DC00E079007A08E833F892A1D2A3A2A2E9331A
:1004EC00F9C2A3DAF0D0E022435552523A20202030
:1004FC002020202020202020002020202020202010
:10050C0020202020202020202000413A00204F468F
:10051C004600434F4F4C004845415400758E01C274
:10052C00A4C2C5C2A6D287D286D285D284D283D2A7
:10053C0082D2812275817FD2A01204D61202F812C7
:10054C00036A12034C12052875E60075E70075BEA8
:10055C000075BF0075CE0075CF00758E01754F000C
:10056C00D2AF75E60075E700C083C082C0E090048E
:10057C00F4120324D0E0D082D083C083C082C0E0C8
:10058C00900505120324D0E0D082D08375431975F1
:10059C00425075452075445075471875465075483E
:0F05AC0014C202C203C204D281D284D28780FE5D
:00000001FF
